{
  "_format": "hh-sol-artifact-1",
  "contractName": "FanPassport",
  "sourceName": "contracts/FanPassport.sol",
  "abi": [
    {
      "inputs": [],
      "stateMutability": "nonpayable",
      "type": "constructor"
    },
    {
      "inputs": [
        {
          "internalType": "address",
          "name": "owner",
          "type": "address"
        }
      ],
      "name": "OwnableInvalidOwner",
      "type": "error"
    },
    {
      "inputs": [
        {
          "internalType": "address",
          "name": "account",
          "type": "address"
        }
      ],
      "name": "OwnableUnauthorizedAccount",
      "type": "error"
    },
    {
      "anonymous": false,
      "inputs": [
        {
          "indexed": true,
          "internalType": "address",
          "name": "wallet",
          "type": "address"
        },
        {
          "indexed": true,
          "internalType": "uint256",
          "name": "matchId",
          "type": "uint256"
        },
        {
          "indexed": false,
          "internalType": "uint256",
          "name": "pointsEarned",
          "type": "uint256"
        }
      ],
      "name": "AttendanceLogged",
      "type": "event"
    },
    {
      "anonymous": false,
      "inputs": [
        {
          "indexed": true,
          "internalType": "address",
          "name": "previousOwner",
          "type": "address"
        },
        {
          "indexed": true,
          "internalType": "address",
          "name": "newOwner",
          "type": "address"
        }
      ],
      "name": "OwnershipTransferred",
      "type": "event"
    },
    {
      "anonymous": false,
      "inputs": [
        {
          "indexed": true,
          "internalType": "address",
          "name": "wallet",
          "type": "address"
        },
        {
          "indexed": false,
          "internalType": "uint256",
          "name": "timestamp",
          "type": "uint256"
        }
      ],
      "name": "PassportCreated",
      "type": "event"
    },
    {
      "anonymous": false,
      "inputs": [
        {
          "indexed": true,
          "internalType": "address",
          "name": "wallet",
          "type": "address"
        },
        {
          "indexed": false,
          "internalType": "bool",
          "name": "wasClean",
          "type": "bool"
        }
      ],
      "name": "ResaleRecorded",
      "type": "event"
    },
    {
      "anonymous": false,
      "inputs": [
        {
          "indexed": true,
          "internalType": "address",
          "name": "wallet",
          "type": "address"
        },
        {
          "indexed": false,
          "internalType": "uint256",
          "name": "rewardIndex",
          "type": "uint256"
        }
      ],
      "name": "RewardClaimed",
      "type": "event"
    },
    {
      "anonymous": false,
      "inputs": [
        {
          "indexed": true,
          "internalType": "address",
          "name": "wallet",
          "type": "address"
        },
        {
          "indexed": false,
          "internalType": "string",
          "name": "sponsor",
          "type": "string"
        },
        {
          "indexed": false,
          "internalType": "string",
          "name": "description",
          "type": "string"
        }
      ],
      "name": "RewardReceived",
      "type": "event"
    },
    {
      "anonymous": false,
      "inputs": [
        {
          "indexed": true,
          "internalType": "address",
          "name": "wallet",
          "type": "address"
        },
        {
          "indexed": false,
          "internalType": "enum FanPassport.Tier",
          "name": "oldTier",
          "type": "uint8"
        },
        {
          "indexed": false,
          "internalType": "enum FanPassport.Tier",
          "name": "newTier",
          "type": "uint8"
        }
      ],
      "name": "TierUpgraded",
      "type": "event"
    },
    {
      "anonymous": false,
      "inputs": [
        {
          "indexed": true,
          "internalType": "address",
          "name": "wallet",
          "type": "address"
        },
        {
          "indexed": false,
          "internalType": "string",
          "name": "reason",
          "type": "string"
        }
      ],
      "name": "WalletBlacklisted",
      "type": "event"
    },
    {
      "anonymous": false,
      "inputs": [
        {
          "indexed": true,
          "internalType": "address",
          "name": "wallet",
          "type": "address"
        }
      ],
      "name": "WalletCleared",
      "type": "event"
    },
    {
      "inputs": [],
      "name": "DIEHARD_THRESHOLD",
      "outputs": [
        {
          "internalType": "uint256",
          "name": "",
          "type": "uint256"
        }
      ],
      "stateMutability": "view",
      "type": "function"
    },
    {
      "inputs": [],
      "name": "FAN_THRESHOLD",
      "outputs": [
        {
          "internalType": "uint256",
          "name": "",
          "type": "uint256"
        }
      ],
      "stateMutability": "view",
      "type": "function"
    },
    {
      "inputs": [],
      "name": "LEGEND_THRESHOLD",
      "outputs": [
        {
          "internalType": "uint256",
          "name": "",
          "type": "uint256"
        }
      ],
      "stateMutability": "view",
      "type": "function"
    },
    {
      "inputs": [],
      "name": "POINTS_PER_MATCH",
      "outputs": [
        {
          "internalType": "uint256",
          "name": "",
          "type": "uint256"
        }
      ],
      "stateMutability": "view",
      "type": "function"
    },
    {
      "inputs": [],
      "name": "ROOKIE_THRESHOLD",
      "outputs": [
        {
          "internalType": "uint256",
          "name": "",
          "type": "uint256"
        }
      ],
      "stateMutability": "view",
      "type": "function"
    },
    {
      "inputs": [
        {
          "internalType": "address",
          "name": "",
          "type": "address"
        },
        {
          "internalType": "uint256",
          "name": "",
          "type": "uint256"
        }
      ],
      "name": "attendanceHistory",
      "outputs": [
        {
          "internalType": "uint256",
          "name": "matchId",
          "type": "uint256"
        },
        {
          "internalType": "string",
          "name": "matchName",
          "type": "string"
        },
        {
          "internalType": "uint256",
          "name": "timestamp",
          "type": "uint256"
        },
        {
          "internalType": "uint256",
          "name": "pointsEarned",
          "type": "uint256"
        }
      ],
      "stateMutability": "view",
      "type": "function"
    },
    {
      "inputs": [
        {
          "internalType": "address",
          "name": "_wallet",
          "type": "address"
        },
        {
          "internalType": "string",
          "name": "_reason",
          "type": "string"
        }
      ],
      "name": "blacklistWallet",
      "outputs": [],
      "stateMutability": "nonpayable",
      "type": "function"
    },
    {
      "inputs": [
        {
          "internalType": "uint256",
          "name": "_rewardIndex",
          "type": "uint256"
        }
      ],
      "name": "claimReward",
      "outputs": [],
      "stateMutability": "nonpayable",
      "type": "function"
    },
    {
      "inputs": [
        {
          "internalType": "address",
          "name": "_wallet",
          "type": "address"
        }
      ],
      "name": "clearBlacklist",
      "outputs": [],
      "stateMutability": "nonpayable",
      "type": "function"
    },
    {
      "inputs": [],
      "name": "createPassport",
      "outputs": [],
      "stateMutability": "nonpayable",
      "type": "function"
    },
    {
      "inputs": [
        {
          "internalType": "address",
          "name": "_wallet",
          "type": "address"
        }
      ],
      "name": "getAttendanceHistory",
      "outputs": [
        {
          "components": [
            {
              "internalType": "uint256",
              "name": "matchId",
              "type": "uint256"
            },
            {
              "internalType": "string",
              "name": "matchName",
              "type": "string"
            },
            {
              "internalType": "uint256",
              "name": "timestamp",
              "type": "uint256"
            },
            {
              "internalType": "uint256",
              "name": "pointsEarned",
              "type": "uint256"
            }
          ],
          "internalType": "struct FanPassport.AttendanceRecord[]",
          "name": "",
          "type": "tuple[]"
        }
      ],
      "stateMutability": "view",
      "type": "function"
    },
    {
      "inputs": [
        {
          "internalType": "address",
          "name": "_wallet",
          "type": "address"
        }
      ],
      "name": "getPassport",
      "outputs": [
        {
          "components": [
            {
              "internalType": "address",
              "name": "wallet",
              "type": "address"
            },
            {
              "internalType": "uint256",
              "name": "reputationScore",
              "type": "uint256"
            },
            {
              "internalType": "uint256",
              "name": "matchesAttended",
              "type": "uint256"
            },
            {
              "internalType": "uint256",
              "name": "cleanResales",
              "type": "uint256"
            },
            {
              "internalType": "uint256",
              "name": "violationCount",
              "type": "uint256"
            },
            {
              "internalType": "enum FanPassport.Tier",
              "name": "currentTier",
              "type": "uint8"
            },
            {
              "internalType": "bool",
              "name": "isBlacklisted",
              "type": "bool"
            },
            {
              "internalType": "bool",
              "name": "exists",
              "type": "bool"
            }
          ],
          "internalType": "struct FanPassport.Passport",
          "name": "",
          "type": "tuple"
        }
      ],
      "stateMutability": "view",
      "type": "function"
    },
    {
      "inputs": [
        {
          "internalType": "address",
          "name": "_wallet",
          "type": "address"
        }
      ],
      "name": "getRewardsInbox",
      "outputs": [
        {
          "components": [
            {
              "internalType": "string",
              "name": "description",
              "type": "string"
            },
            {
              "internalType": "string",
              "name": "sponsor",
              "type": "string"
            },
            {
              "internalType": "uint256",
              "name": "timestamp",
              "type": "uint256"
            },
            {
              "internalType": "bool",
              "name": "claimed",
              "type": "bool"
            }
          ],
          "internalType": "struct FanPassport.Reward[]",
          "name": "",
          "type": "tuple[]"
        }
      ],
      "stateMutability": "view",
      "type": "function"
    },
    {
      "inputs": [
        {
          "internalType": "address",
          "name": "_wallet",
          "type": "address"
        }
      ],
      "name": "getTierName",
      "outputs": [
        {
          "internalType": "string",
          "name": "",
          "type": "string"
        }
      ],
      "stateMutability": "view",
      "type": "function"
    },
    {
      "inputs": [
        {
          "internalType": "address",
          "name": "_wallet",
          "type": "address"
        }
      ],
      "name": "hasPassport",
      "outputs": [
        {
          "internalType": "bool",
          "name": "",
          "type": "bool"
        }
      ],
      "stateMutability": "view",
      "type": "function"
    },
    {
      "inputs": [
        {
          "internalType": "address",
          "name": "_wallet",
          "type": "address"
        }
      ],
      "name": "isBlacklisted",
      "outputs": [
        {
          "internalType": "bool",
          "name": "",
          "type": "bool"
        }
      ],
      "stateMutability": "view",
      "type": "function"
    },
    {
      "inputs": [
        {
          "internalType": "address",
          "name": "_fan",
          "type": "address"
        },
        {
          "internalType": "uint256",
          "name": "_matchId",
          "type": "uint256"
        },
        {
          "internalType": "string",
          "name": "_matchName",
          "type": "string"
        }
      ],
      "name": "logAttendance",
      "outputs": [],
      "stateMutability": "nonpayable",
      "type": "function"
    },
    {
      "inputs": [],
      "name": "owner",
      "outputs": [
        {
          "internalType": "address",
          "name": "",
          "type": "address"
        }
      ],
      "stateMutability": "view",
      "type": "function"
    },
    {
      "inputs": [
        {
          "internalType": "address",
          "name": "",
          "type": "address"
        }
      ],
      "name": "passports",
      "outputs": [
        {
          "internalType": "address",
          "name": "wallet",
          "type": "address"
        },
        {
          "internalType": "uint256",
          "name": "reputationScore",
          "type": "uint256"
        },
        {
          "internalType": "uint256",
          "name": "matchesAttended",
          "type": "uint256"
        },
        {
          "internalType": "uint256",
          "name": "cleanResales",
          "type": "uint256"
        },
        {
          "internalType": "uint256",
          "name": "violationCount",
          "type": "uint256"
        },
        {
          "internalType": "enum FanPassport.Tier",
          "name": "currentTier",
          "type": "uint8"
        },
        {
          "internalType": "bool",
          "name": "isBlacklisted",
          "type": "bool"
        },
        {
          "internalType": "bool",
          "name": "exists",
          "type": "bool"
        }
      ],
      "stateMutability": "view",
      "type": "function"
    },
    {
      "inputs": [
        {
          "internalType": "address",
          "name": "_wallet",
          "type": "address"
        },
        {
          "internalType": "string",
          "name": "_sponsor",
          "type": "string"
        },
        {
          "internalType": "string",
          "name": "_description",
          "type": "string"
        }
      ],
      "name": "pushReward",
      "outputs": [],
      "stateMutability": "nonpayable",
      "type": "function"
    },
    {
      "inputs": [
        {
          "internalType": "address[]",
          "name": "_wallets",
          "type": "address[]"
        },
        {
          "internalType": "string",
          "name": "_sponsor",
          "type": "string"
        },
        {
          "internalType": "string",
          "name": "_description",
          "type": "string"
        },
        {
          "internalType": "enum FanPassport.Tier",
          "name": "_minTier",
          "type": "uint8"
        }
      ],
      "name": "pushRewardToTier",
      "outputs": [],
      "stateMutability": "nonpayable",
      "type": "function"
    },
    {
      "inputs": [
        {
          "internalType": "address",
          "name": "_fan",
          "type": "address"
        },
        {
          "internalType": "bool",
          "name": "_wasClean",
          "type": "bool"
        }
      ],
      "name": "recordResale",
      "outputs": [],
      "stateMutability": "nonpayable",
      "type": "function"
    },
    {
      "inputs": [],
      "name": "renounceOwnership",
      "outputs": [],
      "stateMutability": "nonpayable",
      "type": "function"
    },
    {
      "inputs": [
        {
          "internalType": "address",
          "name": "",
          "type": "address"
        },
        {
          "internalType": "uint256",
          "name": "",
          "type": "uint256"
        }
      ],
      "name": "rewardsInbox",
      "outputs": [
        {
          "internalType": "string",
          "name": "description",
          "type": "string"
        },
        {
          "internalType": "string",
          "name": "sponsor",
          "type": "string"
        },
        {
          "internalType": "uint256",
          "name": "timestamp",
          "type": "uint256"
        },
        {
          "internalType": "bool",
          "name": "claimed",
          "type": "bool"
        }
      ],
      "stateMutability": "view",
      "type": "function"
    },
    {
      "inputs": [
        {
          "internalType": "address",
          "name": "_addr",
          "type": "address"
        }
      ],
      "name": "setTicketNFTContract",
      "outputs": [],
      "stateMutability": "nonpayable",
      "type": "function"
    },
    {
      "inputs": [],
      "name": "ticketNFTContract",
      "outputs": [
        {
          "internalType": "address",
          "name": "",
          "type": "address"
        }
      ],
      "stateMutability": "view",
      "type": "function"
    },
    {
      "inputs": [],
      "name": "totalPassports",
      "outputs": [
        {
          "internalType": "uint256",
          "name": "",
          "type": "uint256"
        }
      ],
      "stateMutability": "view",
      "type": "function"
    },
    {
      "inputs": [
        {
          "internalType": "address",
          "name": "newOwner",
          "type": "address"
        }
      ],
      "name": "transferOwnership",
      "outputs": [],
      "stateMutability": "nonpayable",
      "type": "function"
    }
  ],
  "bytecode": "0x608080604052346071573315605e575f8054336001600160a01b0319821681178355916001600160a01b03909116907f8be0079c531659141344cd1fd0a4f28419497f9722a3daafe3b4186f6b6457e09080a3611db590816100768239f35b631e4fbdf760e01b5f525f60045260245ffd5b5f80fdfe6080806040526004361015610012575f80fd5b5f3560e01c9081630b264e931461163a575080631cc015c71461154b5780632d6528001461152f5780632d8ab129146113425780632ec0faad146111d057806330c7b45f146111a8578063464e38a71461105a5780634a6091fb146110405780634c5993b814610f9b5780634dc30e8714610f5857806357a5893c14610e025780635f4c6c5a14610d78578063715018a614610d2157806373458d1014610c4e5780638da5cb5b14610c275780639ab1c8b914610beb5780639cb3c70614610ba8578063adc8a6e514610a73578063ae169a5014610946578063dc7201f7146107cd578063e2ab379814610394578063e37c132b146102f8578063e424c38514610270578063f05b8a6514610255578063f098d08b14610239578063f2fde38b146101b4578063f8913cd2146101975763fe575a8714610150575f80fd5b34610193576020366003190112610193576001600160a01b03610171611653565b165f526002602052602060ff600560405f20015460081c166040519015158152f35b5f80fd5b34610193575f366003190112610193576020600554604051908152f35b34610193576020366003190112610193576101cd611653565b6101d5611c8a565b6001600160a01b03168015610226575f80546001600160a01b03198116831782556001600160a01b0316907f8be0079c531659141344cd1fd0a4f28419497f9722a3daafe3b4186f6b6457e09080a3005b631e4fbdf760e01b5f525f60045260245ffd5b34610193575f3660031901126101935760206040516102bc8152f35b34610193575f36600319011261019357602060405160648152f35b3461019357602036600319011261019357610289611653565b610291611c8a565b6001600160a01b03165f818152600260205260409020600501546102ba9060101c60ff16611863565b805f526002602052600560405f200161ff001981541690557fd3f017df1d83db1be136ea2d9b332478a618eba6796b0c9c9e8fde500280a03e5f80a2005b34610193576020366003190112610193576001600160a01b03610319611653565b165f52600260205261010060405f2060ff60018060a01b038254169160018101549060028101546003820154906005600484015493015493604051968752602087015260408601526060850152608084015261037a60a08401838316611856565b818160081c16151560c084015260101c16151560e0820152f35b34610193576060366003190112610193576103ad611653565b602435906044356001600160401b038111610193576103d09036906004016116c1565b9160018060a01b035f5416331480156107b9575b6103ed90611c4d565b6001600160a01b0382165f8181526002602052604090206005015460101c60ff1615610689575b805f52600260205260ff600560405f20015460081c1661064f57805f526002602052600160405f20018054906023820180921161063b5755805f526002602052600260405f20016104658154611b53565b9055805f52600360205260405f206040519061048082611669565b83825260208201958652604082014281526060830191602383528054600160401b811015610614576104b791600182018155611751565b939093610628575183556001830196519687516001600160401b038111610614576104e2825461177e565b601f81116105cf575b506020601f82116001146105665790806003959493926105599b5f9261055b575b50508160011b915f1990871b1c19161790555b516002840155519101557f3826b74330392a47cb773920ba6d0af1007e2a831b930405f03b60ccdf91be65602060405160238152a3611cb0565b005b015190508b8061050c565b601f19821699835f52815f209a5f5b8181106105b757509a60019284926003989796956105599e106105a0575b505050811b01905561051f565b01515f1983891b60f8161c191690558b8080610593565b838301518d556001909c019b60209384019301610575565b825f5260205f20601f830160051c8101916020841061060a575b601f0160051c01905b8181106105ff57506104eb565b5f81556001016105f2565b90915081906105e9565b634e487b7160e01b5f52604160045260245ffd5b634e487b7160e01b5f525f60045260245ffd5b634e487b7160e01b5f52601160045260245ffd5b60405162461bcd60e51b815260206004820152601260248201527111985b881a5cc8189b1858dadb1a5cdd195960721b6044820152606490fd5b60405161069581611684565b818152602081015f8152604082015f8152600560608401935f8552608081015f815260a08201955f875260c08301945f865260e084019660018852895f52600260205260405f209460018060a01b039060018060a01b03905116166bffffffffffffffffffffffff60a01b8654161785555160018501555160028401555160038301555160048201550192519060048210156107a55761073861074f9285611b3b565b51835461ff00191690151560081b61ff0016178355565b51815462ff0000191690151560101b62ff00001617905560055461077290611b53565b600555807f71921c889546a104c6c55172889c93163d777868717348f90c3c0f7bf14ee8e96020604051428152a2610414565b634e487b7160e01b5f52602160045260245ffd5b506001546001600160a01b031633146103e4565b34610193576040366003190112610193576107e6611653565b6024359081151591828103610193575f546001600160a01b031633148015610932575b61081290611c4d565b60018060a01b03821690815f52600260205261083a60ff600560405f20015460101c16611863565b156108ae57805f526002602052600360405f20016108588154611b53565b9055805f526002602052600160405f2001805490600a820180921161063b57610559947f2f9e99913ef20e2283163c3839aa2c015ccda006c6e7e7be7226c37bd72fe19792602092555b604051908152a2611cb0565b805f526002602052600460405f20016108c78154611b53565b9055805f5260026020526014600160405f200154101561090e575b7f2f9e99913ef20e2283163c3839aa2c015ccda006c6e7e7be7226c37bd72fe1976020610559946108a2565b805f526002602052600160405f2001805490601319820191821161063b57556108e2565b506001546001600160a01b03163314610809565b3461019357602036600319011261019357600435335f52600260205261097860ff600560405f20015460101c16611863565b335f52600460205260405f2054811015610a3657335f52600460205260ff60036109a58360405f20611751565b500154166109ff57335f52600460205260036109c48260405f20611751565b5001600160ff198254161790556040519081527f106f923f993c2149d49b4255ff723acafa1f2d94393f561d3eda32ae348f724160203392a2005b60405162461bcd60e51b815260206004820152600f60248201526e105b1c9958591e4818db185a5b5959608a1b6044820152606490fd5b60405162461bcd60e51b815260206004820152601560248201527414995dd85c9908191bd95cc81b9bdd08195e1a5cdd605a1b6044820152606490fd5b34610193576020366003190112610193576001600160a01b03610a94611653565b165f52600360205260405f20805490610aac82611716565b91610aba60405193846116a0565b8083526020830180925f5260205f205f915b838310610b6057848660405191829160208301906020845251809152604083019060408160051b85010192915f905b828210610b0a57505050500390f35b919360019193955060208091603f1989820301855287519081518152606080610b4085850151608087860152608085019061172d565b936040810151604085015201519101529601920192018594939192610afb565b60046020600192604051610b7381611669565b85548152610b828587016117b6565b838201526002860154604082015260038601546060820152815201920192019190610acc565b3461019357602036600319011261019357610bc1611653565b610bc9611c8a565b600180546001600160a01b0319166001600160a01b0392909216919091179055005b3461019357602036600319011261019357610c23610c0f610c0a611653565b611b61565b60405191829160208352602083019061172d565b0390f35b34610193575f366003190112610193575f546040516001600160a01b039091168152602090f35b3461019357604036600319011261019357610c67611653565b6024356001600160401b03811161019357610d1c610caa7faf640f92f17718a5ca0c734876ee5b29b7977368d4b8a4e398e08d545aec51d39236906004016116c1565b92610cb3611c8a565b60018060a01b031692835f526002602052610cda60ff600560405f20015460101c16611863565b5f84815260026020526040902060058101805461ff0019166101001790556004018054610d0690611b53565b905560405191829160208352602083019061172d565b0390a2005b34610193575f36600319011261019357610d39611c8a565b5f80546001600160a01b0319811682556001600160a01b03167f8be0079c531659141344cd1fd0a4f28419497f9722a3daafe3b4186f6b6457e08280a3005b3461019357604036600319011261019357610d91611653565b6001600160a01b03165f90815260036020526040902080546024359081101561019357610dbd91611751565b508054610dcc600183016117b6565b9160036002820154910154610df3604051948594855260806020860152608085019061172d565b91604084015260608301520390f35b3461019357602036600319011261019357610e1b611653565b5f60e0604051610e2a81611684565b8281528260208201528260408201528260608201528260808201528260a08201528260c0820152015260018060a01b0316805f526002602052610e7960ff600560405f20015460101c16611863565b5f52600260205260405f20604051610e9081611684565b81546001600160a01b0316815260018201546020820190815260028301546040830190815260038401546060840190815260048086015460808601908152600590960154929592939260ff85169260a08701928410156107a55761010097610f4694845260c088019560ff8860081c161515875260ff60e08a019860101c16151588526040519860018060a01b0390511689525160208901525160408801525160608701525160808601525160a0850190611856565b51151560c083015251151560e0820152f35b34610193576020366003190112610193576001600160a01b03610f79611653565b165f526002602052602060ff600560405f20015460101c166040519015158152f35b3461019357604036600319011261019357610fb4611653565b6001600160a01b03165f908152600460205260409020805460243591908210156101935761102191610fe591611751565b50610fef816117b6565b90610ffc600182016117b6565b61102f60ff60036002850154940154169160405195869560808752608087019061172d565b90858203602087015261172d565b916040840152151560608301520390f35b34610193575f3660031901126101935760206040515f8152f35b34610193576020366003190112610193576001600160a01b0361107b611653565b165f52600460205260405f2080549061109382611716565b916110a160405193846116a0565b8083526020830180925f5260205f205f915b83831061115457848660405191829160208301906020845251809152604083019060408160051b85010192915f905b8282106110f157505050500390f35b919360019193955060208091603f19898203018552875190606080611132611122855160808652608086019061172d565b868601518582038887015261172d565b93604081015160408501520151151591015296019201920185949391926110e2565b6004602060019260405161116781611669565b611170866117b6565b815261117d8587016117b6565b838201526002860154604082015260ff600387015416151560608201528152019201920191906110b3565b34610193575f366003190112610193576001546040516001600160a01b039091168152602090f35b34610193575f36600319011261019357335f52600260205260ff600560405f20015460101c166112fd5760405161120681611684565b338152602081015f8152604082015f8152600560608401935f8552608081015f815260a08201955f875260c08301945f865260e084019660018852335f52600260205260405f209460018060a01b039060018060a01b03905116166bffffffffffffffffffffffff60a01b8654161785555160018501555160028401555160038301555160048201550192519060048210156107a5576107386112a99285611b3b565b51815462ff0000191690151560101b62ff0000161790556005546112cc90611b53565b6005556040514281527f71921c889546a104c6c55172889c93163d777868717348f90c3c0f7bf14ee8e960203392a2005b60405162461bcd60e51b815260206004820152601760248201527f50617373706f727420616c7265616479206578697374730000000000000000006044820152606490fd5b34610193576080366003190112610193576004356001600160401b038111610193573660238201121561019357806004013561137d81611716565b9161138b60405193846116a0565b8183526024602084019260051b8201019036821161019357602401915b81831061150f57836024356001600160401b038111610193576113cf9036906004016116c1565b906044356001600160401b038111610193576113ef9036906004016116c1565b91606435906004821015938461019357611407611c8a565b5f5b84518110156105595760018060a01b0360208260051b870101511690815f52600260205260ff600560405f20015460101c16806114f2575b806114c6575b91600192611457575b5001611409565b805f52600460205261148d60405f206040519061147382611669565b8682528760208301524260408301525f60608301526118af565b7f87f28c8553f69c8e70209ddac60153ec987bb98794ae35efdbd80383ba9ebdf2604051806114bd878983611b13565b0390a287611450565b50815f52600260205260ff600560405f200154169160048310156107a557876107a55791851115611447565b50815f52600260205260ff600560405f20015460081c1615611441565b82356001600160a01b0381168103610193578152602092830192016113a8565b34610193575f36600319011261019357602060405161012c8152f35b3461019357606036600319011261019357611564611653565b6024356001600160401b038111610193576115839036906004016116c1565b90604435906001600160401b038211610193576115c57f87f28c8553f69c8e70209ddac60153ec987bb98794ae35efdbd80383ba9ebdf29236906004016116c1565b906115ce611c8a565b60018060a01b031692835f5260026020526115f560ff600560405f20015460101c16611863565b835f52600460205261162b60405f206040519061161182611669565b8482528360208301524260408301525f60608301526118af565b610d1c60405192839283611b13565b34610193575f3660031901126101935780602360209252f35b600435906001600160a01b038216820361019357565b608081019081106001600160401b0382111761061457604052565b61010081019081106001600160401b0382111761061457604052565b90601f801991011681019081106001600160401b0382111761061457604052565b81601f82011215610193578035906001600160401b03821161061457604051926116f5601f8401601f1916602001856116a0565b8284526020838301011161019357815f926020809301838601378301015290565b6001600160401b0381116106145760051b60200190565b805180835260209291819084018484015e5f828201840152601f01601f1916010190565b805482101561176a575f5260205f209060021b01905f90565b634e487b7160e01b5f52603260045260245ffd5b90600182811c921680156117ac575b602083101461179857565b634e487b7160e01b5f52602260045260245ffd5b91607f169161178d565b9060405191825f8254926117c98461177e565b808452936001811690811561183457506001146117f0575b506117ee925003836116a0565b565b90505f9291925260205f20905f915b8183106118185750509060206117ee928201015f6117e1565b60209193508060019154838589010152019101909184926117ff565b9050602092506117ee94915060ff191682840152151560051b8201015f6117e1565b9060048210156107a55752565b1561186a57565b60405162461bcd60e51b815260206004820152601760248201527f50617373706f727420646f6573206e6f742065786973740000000000000000006044820152606490fd5b9190918054600160401b811015610614576118cf91600182018155611751565b9290926106285780519283516001600160401b038111610614576118f3825461177e565b601f8111611ace575b50602094601f8211600114611a6d579481929394955f92611a62575b50508160011b915f199060031b1c19161781555b6001810160208301518051906001600160401b03821161061457611950835461177e565b601f8111611a1d575b50602090601f83116001146119b557918060039492606096945f926119aa575b50508160011b915f1990861b1c19161790555b6040840151600282015501910151151560ff80198354169116179055565b015190505f80611979565b90601f19831691845f52815f20925f5b818110611a0557509260019285926060989660039896106119ee575b505050811b01905561198c565b01515f1983881b60f8161c191690555f80806119e1565b929360206001819287860151815501950193016119c5565b835f5260205f20601f840160051c81019160208510611a58575b601f0160051c01905b818110611a4d5750611959565b5f8155600101611a40565b9091508190611a37565b015190505f80611918565b601f19821695835f52805f20915f5b888110611ab657508360019596979810611a9e575b505050811b01815561192c565b01515f1960f88460031b161c191690555f8080611a91565b91926020600181928685015181550194019201611a7c565b825f5260205f20601f830160051c81019160208410611b09575b601f0160051c01905b818110611afe57506118fc565b5f8155600101611af1565b9091508190611ae8565b9091611b2a611b389360408452604084019061172d565b91602081840391015261172d565b90565b9060048110156107a55760ff80198354169116179055565b5f19811461063b5760010190565b6001600160a01b03165f81815260026020526040902060050154611b8a9060101c60ff16611863565b5f52600260205260ff600560405f2001541660048110156107a55760038114611c285760028114611c0157600114611be057604051611bca6040826116a0565b6006815265526f6f6b696560d01b602082015290565b604051611bee6040826116a0565b60038152622330b760e91b602082015290565b50604051611c106040826116a0565b6008815267111a594b52185c9960c21b602082015290565b50604051611c376040826116a0565b6006815265131959d95b9960d21b602082015290565b15611c5457565b60405162461bcd60e51b815260206004820152600e60248201526d139bdd08185d5d1a1bdc9a5e995960921b6044820152606490fd5b5f546001600160a01b03163303611c9d57565b63118cdaa760e01b5f523360045260245ffd5b6001600160a01b03165f818152600260205260409020600581015460019091015460ff909116906102bc8110611d5a575060035b60048210156107a55760048110156107a557818103611d0257505050565b7fcbbf00b5f55f1857f9362f521999f79036413e420d1b236d6bc143af30db731a91611d57604092855f526002602052611d41816005865f2001611b3b565b611d4d84518094611856565b6020830190611856565ba2565b61012c8110611d6b57506002611ce4565b606411611d79576001611ce4565b5f611ce456fea2646970667358221220485fece70b34e0bcf7f7db32707b93e1343daca0b61f81d794640757bd3c7b2464736f6c634300081c0033",
  "linkReferences": {},
  "deployedLinkReferences": {}
}