{
  "_format": "hh-sol-artifact-1",
  "contractName": "Marketplace",
  "sourceName": "contracts/Marketplace.sol",
  "abi": [
    {
      "inputs": [
        {
          "internalType": "address",
          "name": "_ticketNFT",
          "type": "address"
        },
        {
          "internalType": "address",
          "name": "_fanPassport",
          "type": "address"
        }
      ],
      "stateMutability": "nonpayable",
      "type": "constructor"
    },
    {
      "inputs": [
        {
          "internalType": "address",
          "name": "owner",
          "type": "address"
        }
      ],
      "name": "OwnableInvalidOwner",
      "type": "error"
    },
    {
      "inputs": [
        {
          "internalType": "address",
          "name": "account",
          "type": "address"
        }
      ],
      "name": "OwnableUnauthorizedAccount",
      "type": "error"
    },
    {
      "inputs": [],
      "name": "ReentrancyGuardReentrantCall",
      "type": "error"
    },
    {
      "anonymous": false,
      "inputs": [
        {
          "indexed": true,
          "internalType": "address",
          "name": "previousOwner",
          "type": "address"
        },
        {
          "indexed": true,
          "internalType": "address",
          "name": "newOwner",
          "type": "address"
        }
      ],
      "name": "OwnershipTransferred",
      "type": "event"
    },
    {
      "anonymous": false,
      "inputs": [
        {
          "indexed": true,
          "internalType": "uint256",
          "name": "tokenId",
          "type": "uint256"
        },
        {
          "indexed": true,
          "internalType": "address",
          "name": "seller",
          "type": "address"
        }
      ],
      "name": "TicketDelisted",
      "type": "event"
    },
    {
      "anonymous": false,
      "inputs": [
        {
          "indexed": true,
          "internalType": "uint256",
          "name": "tokenId",
          "type": "uint256"
        },
        {
          "indexed": true,
          "internalType": "address",
          "name": "seller",
          "type": "address"
        },
        {
          "indexed": false,
          "internalType": "uint256",
          "name": "price",
          "type": "uint256"
        }
      ],
      "name": "TicketListed",
      "type": "event"
    },
    {
      "anonymous": false,
      "inputs": [
        {
          "indexed": true,
          "internalType": "uint256",
          "name": "tokenId",
          "type": "uint256"
        },
        {
          "indexed": true,
          "internalType": "address",
          "name": "seller",
          "type": "address"
        },
        {
          "indexed": true,
          "internalType": "address",
          "name": "buyer",
          "type": "address"
        },
        {
          "indexed": false,
          "internalType": "uint256",
          "name": "price",
          "type": "uint256"
        }
      ],
      "name": "TicketSold",
      "type": "event"
    },
    {
      "inputs": [
        {
          "internalType": "uint256",
          "name": "",
          "type": "uint256"
        }
      ],
      "name": "activeListings",
      "outputs": [
        {
          "internalType": "uint256",
          "name": "",
          "type": "uint256"
        }
      ],
      "stateMutability": "view",
      "type": "function"
    },
    {
      "inputs": [
        {
          "internalType": "uint256",
          "name": "_tokenId",
          "type": "uint256"
        }
      ],
      "name": "buyTicket",
      "outputs": [],
      "stateMutability": "payable",
      "type": "function"
    },
    {
      "inputs": [
        {
          "internalType": "uint256",
          "name": "_tokenId",
          "type": "uint256"
        }
      ],
      "name": "delistTicket",
      "outputs": [],
      "stateMutability": "nonpayable",
      "type": "function"
    },
    {
      "inputs": [],
      "name": "fanPassport",
      "outputs": [
        {
          "internalType": "contract IFanPassport",
          "name": "",
          "type": "address"
        }
      ],
      "stateMutability": "view",
      "type": "function"
    },
    {
      "inputs": [],
      "name": "getActiveListings",
      "outputs": [
        {
          "internalType": "uint256[]",
          "name": "",
          "type": "uint256[]"
        }
      ],
      "stateMutability": "view",
      "type": "function"
    },
    {
      "inputs": [
        {
          "internalType": "uint256",
          "name": "_tokenId",
          "type": "uint256"
        }
      ],
      "name": "getListing",
      "outputs": [
        {
          "components": [
            {
              "internalType": "uint256",
              "name": "tokenId",
              "type": "uint256"
            },
            {
              "internalType": "address",
              "name": "seller",
              "type": "address"
            },
            {
              "internalType": "uint256",
              "name": "price",
              "type": "uint256"
            },
            {
              "internalType": "uint256",
              "name": "priceCap",
              "type": "uint256"
            },
            {
              "internalType": "bool",
              "name": "isActive",
              "type": "bool"
            },
            {
              "internalType": "uint256",
              "name": "listedAt",
              "type": "uint256"
            }
          ],
          "internalType": "struct Marketplace.Listing",
          "name": "",
          "type": "tuple"
        }
      ],
      "stateMutability": "view",
      "type": "function"
    },
    {
      "inputs": [],
      "name": "getMarketplaceStats",
      "outputs": [
        {
          "internalType": "uint256",
          "name": "totalResales_",
          "type": "uint256"
        },
        {
          "internalType": "uint256",
          "name": "totalVolume_",
          "type": "uint256"
        },
        {
          "internalType": "uint256",
          "name": "activeCount_",
          "type": "uint256"
        }
      ],
      "stateMutability": "view",
      "type": "function"
    },
    {
      "inputs": [
        {
          "internalType": "uint256",
          "name": "_tokenId",
          "type": "uint256"
        },
        {
          "internalType": "uint256",
          "name": "_price",
          "type": "uint256"
        }
      ],
      "name": "listTicket",
      "outputs": [],
      "stateMutability": "nonpayable",
      "type": "function"
    },
    {
      "inputs": [
        {
          "internalType": "uint256",
          "name": "",
          "type": "uint256"
        }
      ],
      "name": "listings",
      "outputs": [
        {
          "internalType": "uint256",
          "name": "tokenId",
          "type": "uint256"
        },
        {
          "internalType": "address",
          "name": "seller",
          "type": "address"
        },
        {
          "internalType": "uint256",
          "name": "price",
          "type": "uint256"
        },
        {
          "internalType": "uint256",
          "name": "priceCap",
          "type": "uint256"
        },
        {
          "internalType": "bool",
          "name": "isActive",
          "type": "bool"
        },
        {
          "internalType": "uint256",
          "name": "listedAt",
          "type": "uint256"
        }
      ],
      "stateMutability": "view",
      "type": "function"
    },
    {
      "inputs": [],
      "name": "owner",
      "outputs": [
        {
          "internalType": "address",
          "name": "",
          "type": "address"
        }
      ],
      "stateMutability": "view",
      "type": "function"
    },
    {
      "inputs": [],
      "name": "renounceOwnership",
      "outputs": [],
      "stateMutability": "nonpayable",
      "type": "function"
    },
    {
      "inputs": [],
      "name": "ticketNFT",
      "outputs": [
        {
          "internalType": "contract ITicketNFT",
          "name": "",
          "type": "address"
        }
      ],
      "stateMutability": "view",
      "type": "function"
    },
    {
      "inputs": [],
      "name": "totalResales",
      "outputs": [
        {
          "internalType": "uint256",
          "name": "",
          "type": "uint256"
        }
      ],
      "stateMutability": "view",
      "type": "function"
    },
    {
      "inputs": [],
      "name": "totalVolume",
      "outputs": [
        {
          "internalType": "uint256",
          "name": "",
          "type": "uint256"
        }
      ],
      "stateMutability": "view",
      "type": "function"
    },
    {
      "inputs": [
        {
          "internalType": "address",
          "name": "newOwner",
          "type": "address"
        }
      ],
      "name": "transferOwnership",
      "outputs": [],
      "stateMutability": "nonpayable",
      "type": "function"
    }
  ],
  "bytecode": "0x60803461011257601f61122438819003918201601f19168301916001600160401b0383118484101761011657808492604094855283398101031261011257610052602061004b8361012a565b920161012a565b33156100ff575f8054336001600160a01b0319821681178355604051949290916001600160a01b0316907f8be0079c531659141344cd1fd0a4f28419497f9722a3daafe3b4186f6b6457e09080a360017f9b779b17422d0df92223018b32b4d1fa46e071723d6817e2486d003becc55f0081905580546001600160a01b039283166001600160a01b031991821617909155600280549390921692169190911790556110e5908161013f8239f35b631e4fbdf760e01b5f525f60045260245ffd5b5f80fd5b634e487b7160e01b5f52604160045260245ffd5b51906001600160a01b03821682036101125756fe6080806040526004361015610012575f80fd5b5f905f3560e01c908163107a274a14610da9575080632bbe807b14610c53578063305a905a146107c55780635f81a57c146107a757806361cf48631461076d57806367dd74ca1461048a578063715018a614610430578063812d966a146103b357806387c35bc0146102575780638da5cb5b14610230578063aa42635214610207578063af5289ac146101e9578063b393391b146101c0578063de74e57b146101515763f2fde38b146100c3575f80fd5b3461014e57602036600319011261014e576004356001600160a01b0381169081900361014c576100f1611069565b80156101385781546001600160a01b03198116821783556001600160a01b03167f8be0079c531659141344cd1fd0a4f28419497f9722a3daafe3b4186f6b6457e08380a380f35b631e4fbdf760e01b82526004829052602482fd5b505b80fd5b503461014e57602036600319011261014e57604060c091600435815260036020522080549060018060a01b03600182015416906002810154600382015490600560ff600485015416930154936040519586526020860152604085015260608401521515608083015260a0820152f35b503461014e578060031936011261014e576001546040516001600160a01b039091168152602090f35b503461014e578060031936011261014e576020600554604051908152f35b503461014e578060031936011261014e576002546040516001600160a01b039091168152602090f35b503461014e578060031936011261014e57546040516001600160a01b039091168152602090f35b503461014e578060031936011261014e5760045481805b828110610370575061029861028282611019565b916102906040519384610edd565b808352611019565b602082019290601f19013684378390845b8181106102f55750505090604051928392602084019060208552518091526040840192915b8181106102dc575050500390f35b82518452859450602093840193909201916001016102ce565b6102fe81610e81565b90549060031b1c8652600360205260ff600460408820015416610324575b6001016102a9565b9161032e83610e81565b90549060031b1c845182101561035c578161035491602060019460051b88010152610ff7565b92905061031c565b634e487b7160e01b87526032600452602487fd5b61037981610e81565b90549060031b1c8452600360205260ff60046040862001541661039f575b60010161026e565b906103ab600191610ff7565b919050610397565b503461014e578060031936011261014e5760045481805b8281106103ed576060846005549060065460405192835260208301526040820152f35b6103f681610e81565b90549060031b1c8252600360205260ff60046040842001541661041c575b6001016103ca565b92610428600191610ff7565b939050610414565b503461014e578060031936011261014e57610449611069565b80546001600160a01b03198116825581906001600160a01b03167f8be0079c531659141344cd1fd0a4f28419497f9722a3daafe3b4186f6b6457e08280a380f35b50602036600319011261014e576004356104a2611031565b8082526003602052604082209060048201908154916104c360ff8416610eff565b60018401546001600160a01b031692338414610728576002850154948534106106ec5760036104f6910154861115610fb7565b60ff1916905560015484906001600160a01b0316803b1561014c57816084916040519283809263756765eb60e01b825287600483015288602483015233604483015289606483015234905af1801561068e576106d7575b50600254604051634dc30e8760e01b8152600481018590526001600160a01b0390911690602081602481855afa908115610616578391610699575b5061063e575b505061059b600554610ff7565b60055560065483810180911161062a576006558234116105f6575b6040519283527f2bbc64d6afd28a753f6c5e4aaa894f1d684c44a0e080167eae104ac8505cfebd60203394a460015f5160206110905f395f51905f525580f35b82340334811161062a57848080809381883414610621575b3390f16105b6575b6040513d85823e3d90fd5b506108fc61060e565b634e487b7160e01b85526011600452602485fd5b803b1561014c5781809160446040518094819363dc7201f760e01b8352896004840152600160248401525af1801561068e571561058e578161067f91610edd565b61068a57835f61058e565b8380fd5b6040513d84823e3d90fd5b90506020813d6020116106cf575b816106b460209383610edd565b810103126106cb576106c590610faa565b5f610588565b8280fd5b3d91506106a7565b816106e191610edd565b61068a57835f61054d565b60405162461bcd60e51b8152602060048201526014602482015273125b9cdd59999a58da595b9d081c185e5b595b9d60621b6044820152606490fd5b60405162461bcd60e51b815260206004820152601a60248201527f43616e6e6f742062757920796f7572206f776e207469636b65740000000000006044820152606490fd5b503461014e57602036600319011261014e576004359060045482101561014e57602061079883610e81565b90549060031b1c604051908152f35b503461014e578060031936011261014e576020600654604051908152f35b503461014e57604036600319011261014e576024356004356107e5611031565b6001546040516331a9108f60e11b8152600481018390526001600160a01b0390911690602081602481855afa908115610c48578591610c0e575b50336001600160a01b0390911603610bc9578360249160405192838092633ee1bcfd60e11b82528660048301525afa8015610bbe578490859286908792610ab3575b50610a6e57610a315761087682851115610fb7565b60011c83106109fc5760056040519161088e83610ead565b838352602083019033825260408401908682526060850190815260808501916001835260a0860193428552878a52600360205260408a2096518755600187019060018060a01b039051166bffffffffffffffffffffffff60a01b825416179055516002860155516003850155600484019051151560ff8019835416911617905551910155600454680100000000000000008110156109e8578060016109369201600455610e81565b81545f1960039290921b91821b19169083901b17905560015483906001600160a01b0316803b1561014c578180916044604051809481936360222e2b60e01b8352886004840152600160248401525af1801561068e576109d3575b50506040519182527f22968ec3be3687b180f3544163a034b88d57b48159d9a7e9a1b610fdb2d05f8060203393a360015f5160206110905f395f51905f525580f35b816109dd91610edd565b6106cb57825f610991565b634e487b7160e01b84526041600452602484fd5b60405162461bcd60e51b815260206004820152600d60248201526c507269636520746f6f206c6f7760981b6044820152606490fd5b60405162461bcd60e51b8152602060048201526015602482015274151a58dad95d08185b1c9958591e481b1a5cdd1959605a1b6044820152606490fd5b60405162461bcd60e51b815260206004820152601760248201527f43616e6e6f74206c6973742075736564207469636b65740000000000000000006044820152606490fd5b93505050503d8085833e610ac78183610edd565b810161018082820312610bba57604082015167ffffffffffffffff8111610bb65781610af4918401610f54565b50606082015167ffffffffffffffff8111610bb65781610b15918401610f54565b50608082015167ffffffffffffffff8111610bb65781610b36918401610f54565b5060a082015167ffffffffffffffff8111610bb65781610b57918401610f54565b5060c08201519067ffffffffffffffff8211610bb657610b78918301610f54565b5060e081015161010082015190610b926101208401610f40565b50610bad610160610ba66101408601610faa565b9401610faa565b9091925f610861565b8580fd5b8480fd5b6040513d86823e3d90fd5b60405162461bcd60e51b815260206004820152601a60248201527f596f7520646f206e6f74206f776e2074686973207469636b65740000000000006044820152606490fd5b90506020813d602011610c40575b81610c2960209383610edd565b81010312610bba57610c3a90610f40565b5f61081f565b3d9150610c1c565b6040513d87823e3d90fd5b5034610d60576020366003190112610d6057600435610c70611031565b5f818152600360205260409020600101546001600160a01b03163303610d6457805f526003602052610cab60ff600460405f20015416610eff565b5f818152600360205260409020600401805460ff191690556001546001600160a01b0316803b15610d60575f80916044604051809481936360222e2b60e01b83528760048401528160248401525af18015610d5557610d40575b5033907fc116abad2a02ba3ce14050336137b8c63fa9fb38efd9381b7b81f7c93223aba38380a360015f5160206110905f395f51905f525580f35b610d4d9192505f90610edd565b5f905f610d05565b6040513d5f823e3d90fd5b5f80fd5b60405162461bcd60e51b815260206004820152601c60248201527f596f7520646964206e6f74206c6973742074686973207469636b6574000000006044820152606490fd5b34610d60576020366003190112610d605760a081610dc75f93610ead565b82815282602082015282604082015282606082015282608082015201526004355f52600360205260c060405f20604051610e0081610ead565b81549182825260018060a01b03600182015416602083019081526002820154604084019081526003830154916060850192835260a0600560ff600487015416956080880196151587520154950194855260405195865260018060a01b03905116602086015251604085015251606084015251151560808301525160a0820152f35b600454811015610e995760045f5260205f2001905f90565b634e487b7160e01b5f52603260045260245ffd5b60c0810190811067ffffffffffffffff821117610ec957604052565b634e487b7160e01b5f52604160045260245ffd5b90601f8019910116810190811067ffffffffffffffff821117610ec957604052565b15610f0657565b60405162461bcd60e51b81526020600482015260126024820152714c697374696e67206e6f742061637469766560701b6044820152606490fd5b51906001600160a01b0382168203610d6057565b81601f82011215610d605780519067ffffffffffffffff8211610ec95760405192610f89601f8401601f191660200185610edd565b82845260208383010111610d6057815f9260208093018386015e8301015290565b51908115158203610d6057565b15610fbe57565b60405162461bcd60e51b81526020600482015260116024820152700507269636520657863656564732063617607c1b6044820152606490fd5b5f1981146110055760010190565b634e487b7160e01b5f52601160045260245ffd5b67ffffffffffffffff8111610ec95760051b60200190565b60025f5160206110905f395f51905f52541461105a5760025f5160206110905f395f51905f5255565b633ee5aeb560e01b5f5260045ffd5b5f546001600160a01b0316330361107c57565b63118cdaa760e01b5f523360045260245ffdfe9b779b17422d0df92223018b32b4d1fa46e071723d6817e2486d003becc55f00a2646970667358221220fc52e673fb27308528a80c990210566d9d43f83d71d108134545f8a4e210f3a264736f6c634300081c0033",
  "linkReferences": {},
  "deployedLinkReferences": {}
}