{
  "_format": "hh-sol-artifact-1",
  "contractName": "TicketNFT",
  "sourceName": "contracts/TicketNFT.sol",
  "abi": [
    {
      "inputs": [],
      "stateMutability": "nonpayable",
      "type": "constructor"
    },
    {
      "inputs": [
        {
          "internalType": "address",
          "name": "sender",
          "type": "address"
        },
        {
          "internalType": "uint256",
          "name": "tokenId",
          "type": "uint256"
        },
        {
          "internalType": "address",
          "name": "owner",
          "type": "address"
        }
      ],
      "name": "ERC721IncorrectOwner",
      "type": "error"
    },
    {
      "inputs": [
        {
          "internalType": "address",
          "name": "operator",
          "type": "address"
        },
        {
          "internalType": "uint256",
          "name": "tokenId",
          "type": "uint256"
        }
      ],
      "name": "ERC721InsufficientApproval",
      "type": "error"
    },
    {
      "inputs": [
        {
          "internalType": "address",
          "name": "approver",
          "type": "address"
        }
      ],
      "name": "ERC721InvalidApprover",
      "type": "error"
    },
    {
      "inputs": [
        {
          "internalType": "address",
          "name": "operator",
          "type": "address"
        }
      ],
      "name": "ERC721InvalidOperator",
      "type": "error"
    },
    {
      "inputs": [
        {
          "internalType": "address",
          "name": "owner",
          "type": "address"
        }
      ],
      "name": "ERC721InvalidOwner",
      "type": "error"
    },
    {
      "inputs": [
        {
          "internalType": "address",
          "name": "receiver",
          "type": "address"
        }
      ],
      "name": "ERC721InvalidReceiver",
      "type": "error"
    },
    {
      "inputs": [
        {
          "internalType": "address",
          "name": "sender",
          "type": "address"
        }
      ],
      "name": "ERC721InvalidSender",
      "type": "error"
    },
    {
      "inputs": [
        {
          "internalType": "uint256",
          "name": "tokenId",
          "type": "uint256"
        }
      ],
      "name": "ERC721NonexistentToken",
      "type": "error"
    },
    {
      "inputs": [
        {
          "internalType": "address",
          "name": "owner",
          "type": "address"
        }
      ],
      "name": "OwnableInvalidOwner",
      "type": "error"
    },
    {
      "inputs": [
        {
          "internalType": "address",
          "name": "account",
          "type": "address"
        }
      ],
      "name": "OwnableUnauthorizedAccount",
      "type": "error"
    },
    {
      "anonymous": false,
      "inputs": [
        {
          "indexed": true,
          "internalType": "address",
          "name": "owner",
          "type": "address"
        },
        {
          "indexed": true,
          "internalType": "address",
          "name": "approved",
          "type": "address"
        },
        {
          "indexed": true,
          "internalType": "uint256",
          "name": "tokenId",
          "type": "uint256"
        }
      ],
      "name": "Approval",
      "type": "event"
    },
    {
      "anonymous": false,
      "inputs": [
        {
          "indexed": true,
          "internalType": "address",
          "name": "owner",
          "type": "address"
        },
        {
          "indexed": true,
          "internalType": "address",
          "name": "operator",
          "type": "address"
        },
        {
          "indexed": false,
          "internalType": "bool",
          "name": "approved",
          "type": "bool"
        }
      ],
      "name": "ApprovalForAll",
      "type": "event"
    },
    {
      "anonymous": false,
      "inputs": [
        {
          "indexed": false,
          "internalType": "uint256",
          "name": "_fromTokenId",
          "type": "uint256"
        },
        {
          "indexed": false,
          "internalType": "uint256",
          "name": "_toTokenId",
          "type": "uint256"
        }
      ],
      "name": "BatchMetadataUpdate",
      "type": "event"
    },
    {
      "anonymous": false,
      "inputs": [
        {
          "indexed": true,
          "internalType": "uint256",
          "name": "matchId",
          "type": "uint256"
        },
        {
          "indexed": false,
          "internalType": "string",
          "name": "matchName",
          "type": "string"
        },
        {
          "indexed": false,
          "internalType": "uint256",
          "name": "ticketPrice",
          "type": "uint256"
        },
        {
          "indexed": false,
          "internalType": "uint256",
          "name": "totalSeats",
          "type": "uint256"
        }
      ],
      "name": "MatchCreated",
      "type": "event"
    },
    {
      "anonymous": false,
      "inputs": [
        {
          "indexed": false,
          "internalType": "uint256",
          "name": "_tokenId",
          "type": "uint256"
        }
      ],
      "name": "MetadataUpdate",
      "type": "event"
    },
    {
      "anonymous": false,
      "inputs": [
        {
          "indexed": true,
          "internalType": "address",
          "name": "previousOwner",
          "type": "address"
        },
        {
          "indexed": true,
          "internalType": "address",
          "name": "newOwner",
          "type": "address"
        }
      ],
      "name": "OwnershipTransferred",
      "type": "event"
    },
    {
      "anonymous": false,
      "inputs": [
        {
          "indexed": true,
          "internalType": "uint256",
          "name": "tokenId",
          "type": "uint256"
        },
        {
          "indexed": false,
          "internalType": "uint256",
          "name": "amount",
          "type": "uint256"
        },
        {
          "indexed": false,
          "internalType": "address",
          "name": "paidTo",
          "type": "address"
        }
      ],
      "name": "RoyaltyPaid",
      "type": "event"
    },
    {
      "anonymous": false,
      "inputs": [
        {
          "indexed": true,
          "internalType": "uint256",
          "name": "tokenId",
          "type": "uint256"
        },
        {
          "indexed": true,
          "internalType": "uint256",
          "name": "matchId",
          "type": "uint256"
        },
        {
          "indexed": true,
          "internalType": "address",
          "name": "buyer",
          "type": "address"
        },
        {
          "indexed": false,
          "internalType": "string",
          "name": "seat",
          "type": "string"
        }
      ],
      "name": "TicketMinted",
      "type": "event"
    },
    {
      "anonymous": false,
      "inputs": [
        {
          "indexed": true,
          "internalType": "uint256",
          "name": "tokenId",
          "type": "uint256"
        },
        {
          "indexed": true,
          "internalType": "address",
          "name": "from",
          "type": "address"
        },
        {
          "indexed": true,
          "internalType": "address",
          "name": "to",
          "type": "address"
        },
        {
          "indexed": false,
          "internalType": "uint256",
          "name": "price",
          "type": "uint256"
        }
      ],
      "name": "TicketResold",
      "type": "event"
    },
    {
      "anonymous": false,
      "inputs": [
        {
          "indexed": true,
          "internalType": "uint256",
          "name": "tokenId",
          "type": "uint256"
        },
        {
          "indexed": true,
          "internalType": "address",
          "name": "fan",
          "type": "address"
        },
        {
          "indexed": false,
          "internalType": "uint256",
          "name": "timestamp",
          "type": "uint256"
        }
      ],
      "name": "TicketScanned",
      "type": "event"
    },
    {
      "anonymous": false,
      "inputs": [
        {
          "indexed": true,
          "internalType": "address",
          "name": "from",
          "type": "address"
        },
        {
          "indexed": true,
          "internalType": "address",
          "name": "to",
          "type": "address"
        },
        {
          "indexed": true,
          "internalType": "uint256",
          "name": "tokenId",
          "type": "uint256"
        }
      ],
      "name": "Transfer",
      "type": "event"
    },
    {
      "inputs": [
        {
          "internalType": "address",
          "name": "to",
          "type": "address"
        },
        {
          "internalType": "uint256",
          "name": "tokenId",
          "type": "uint256"
        }
      ],
      "name": "approve",
      "outputs": [],
      "stateMutability": "nonpayable",
      "type": "function"
    },
    {
      "inputs": [
        {
          "internalType": "address",
          "name": "owner",
          "type": "address"
        }
      ],
      "name": "balanceOf",
      "outputs": [
        {
          "internalType": "uint256",
          "name": "",
          "type": "uint256"
        }
      ],
      "stateMutability": "view",
      "type": "function"
    },
    {
      "inputs": [
        {
          "internalType": "uint256",
          "name": "_matchId",
          "type": "uint256"
        },
        {
          "internalType": "string",
          "name": "_seat",
          "type": "string"
        },
        {
          "internalType": "string",
          "name": "_stand",
          "type": "string"
        },
        {
          "internalType": "string",
          "name": "_tokenURI",
          "type": "string"
        }
      ],
      "name": "buyTicket",
      "outputs": [
        {
          "internalType": "uint256",
          "name": "",
          "type": "uint256"
        }
      ],
      "stateMutability": "payable",
      "type": "function"
    },
    {
      "inputs": [
        {
          "internalType": "string",
          "name": "_matchName",
          "type": "string"
        },
        {
          "internalType": "string",
          "name": "_team1",
          "type": "string"
        },
        {
          "internalType": "string",
          "name": "_team2",
          "type": "string"
        },
        {
          "internalType": "string",
          "name": "_venue",
          "type": "string"
        },
        {
          "internalType": "string",
          "name": "_date",
          "type": "string"
        },
        {
          "internalType": "uint256",
          "name": "_ticketPrice",
          "type": "uint256"
        },
        {
          "internalType": "uint256",
          "name": "_resalePriceCap",
          "type": "uint256"
        },
        {
          "internalType": "uint256",
          "name": "_totalSeats",
          "type": "uint256"
        }
      ],
      "name": "createMatch",
      "outputs": [
        {
          "internalType": "uint256",
          "name": "",
          "type": "uint256"
        }
      ],
      "stateMutability": "nonpayable",
      "type": "function"
    },
    {
      "inputs": [
        {
          "internalType": "uint256",
          "name": "_matchId",
          "type": "uint256"
        }
      ],
      "name": "deactivateMatch",
      "outputs": [],
      "stateMutability": "nonpayable",
      "type": "function"
    },
    {
      "inputs": [
        {
          "internalType": "uint256",
          "name": "_tokenId",
          "type": "uint256"
        },
        {
          "internalType": "address",
          "name": "_seller",
          "type": "address"
        },
        {
          "internalType": "address",
          "name": "_buyer",
          "type": "address"
        },
        {
          "internalType": "uint256",
          "name": "_salePrice",
          "type": "uint256"
        }
      ],
      "name": "executeResale",
      "outputs": [],
      "stateMutability": "payable",
      "type": "function"
    },
    {
      "inputs": [],
      "name": "fanPassportContract",
      "outputs": [
        {
          "internalType": "address",
          "name": "",
          "type": "address"
        }
      ],
      "stateMutability": "view",
      "type": "function"
    },
    {
      "inputs": [],
      "name": "getActiveMatches",
      "outputs": [
        {
          "internalType": "uint256[]",
          "name": "",
          "type": "uint256[]"
        }
      ],
      "stateMutability": "view",
      "type": "function"
    },
    {
      "inputs": [
        {
          "internalType": "uint256",
          "name": "tokenId",
          "type": "uint256"
        }
      ],
      "name": "getApproved",
      "outputs": [
        {
          "internalType": "address",
          "name": "",
          "type": "address"
        }
      ],
      "stateMutability": "view",
      "type": "function"
    },
    {
      "inputs": [
        {
          "internalType": "uint256",
          "name": "_matchId",
          "type": "uint256"
        }
      ],
      "name": "getMatch",
      "outputs": [
        {
          "components": [
            {
              "internalType": "uint256",
              "name": "matchId",
              "type": "uint256"
            },
            {
              "internalType": "string",
              "name": "matchName",
              "type": "string"
            },
            {
              "internalType": "string",
              "name": "team1",
              "type": "string"
            },
            {
              "internalType": "string",
              "name": "team2",
              "type": "string"
            },
            {
              "internalType": "string",
              "name": "venue",
              "type": "string"
            },
            {
              "internalType": "string",
              "name": "date",
              "type": "string"
            },
            {
              "internalType": "uint256",
              "name": "ticketPrice",
              "type": "uint256"
            },
            {
              "internalType": "uint256",
              "name": "resalePriceCap",
              "type": "uint256"
            },
            {
              "internalType": "uint256",
              "name": "totalSeats",
              "type": "uint256"
            },
            {
              "internalType": "uint256",
              "name": "soldSeats",
              "type": "uint256"
            },
            {
              "internalType": "bool",
              "name": "isActive",
              "type": "bool"
            }
          ],
          "internalType": "struct TicketNFT.Match",
          "name": "",
          "type": "tuple"
        }
      ],
      "stateMutability": "view",
      "type": "function"
    },
    {
      "inputs": [
        {
          "internalType": "address",
          "name": "_owner",
          "type": "address"
        }
      ],
      "name": "getOwnerTickets",
      "outputs": [
        {
          "internalType": "uint256[]",
          "name": "",
          "type": "uint256[]"
        }
      ],
      "stateMutability": "view",
      "type": "function"
    },
    {
      "inputs": [
        {
          "internalType": "uint256",
          "name": "_tokenId",
          "type": "uint256"
        }
      ],
      "name": "getTicket",
      "outputs": [
        {
          "components": [
            {
              "internalType": "uint256",
              "name": "tokenId",
              "type": "uint256"
            },
            {
              "internalType": "uint256",
              "name": "matchId",
              "type": "uint256"
            },
            {
              "internalType": "string",
              "name": "matchName",
              "type": "string"
            },
            {
              "internalType": "string",
              "name": "venue",
              "type": "string"
            },
            {
              "internalType": "string",
              "name": "date",
              "type": "string"
            },
            {
              "internalType": "string",
              "name": "seat",
              "type": "string"
            },
            {
              "internalType": "string",
              "name": "stand",
              "type": "string"
            },
            {
              "internalType": "uint256",
              "name": "originalPrice",
              "type": "uint256"
            },
            {
              "internalType": "uint256",
              "name": "resalePriceCap",
              "type": "uint256"
            },
            {
              "internalType": "address",
              "name": "originalBuyer",
              "type": "address"
            },
            {
              "internalType": "bool",
              "name": "isUsed",
              "type": "bool"
            },
            {
              "internalType": "bool",
              "name": "isListed",
              "type": "bool"
            }
          ],
          "internalType": "struct TicketNFT.Ticket",
          "name": "",
          "type": "tuple"
        }
      ],
      "stateMutability": "view",
      "type": "function"
    },
    {
      "inputs": [
        {
          "internalType": "address",
          "name": "owner",
          "type": "address"
        },
        {
          "internalType": "address",
          "name": "operator",
          "type": "address"
        }
      ],
      "name": "isApprovedForAll",
      "outputs": [
        {
          "internalType": "bool",
          "name": "",
          "type": "bool"
        }
      ],
      "stateMutability": "view",
      "type": "function"
    },
    {
      "inputs": [],
      "name": "marketplaceContract",
      "outputs": [
        {
          "internalType": "address",
          "name": "",
          "type": "address"
        }
      ],
      "stateMutability": "view",
      "type": "function"
    },
    {
      "inputs": [],
      "name": "matchCount",
      "outputs": [
        {
          "internalType": "uint256",
          "name": "",
          "type": "uint256"
        }
      ],
      "stateMutability": "view",
      "type": "function"
    },
    {
      "inputs": [
        {
          "internalType": "uint256",
          "name": "",
          "type": "uint256"
        }
      ],
      "name": "matches",
      "outputs": [
        {
          "internalType": "uint256",
          "name": "matchId",
          "type": "uint256"
        },
        {
          "internalType": "string",
          "name": "matchName",
          "type": "string"
        },
        {
          "internalType": "string",
          "name": "team1",
          "type": "string"
        },
        {
          "internalType": "string",
          "name": "team2",
          "type": "string"
        },
        {
          "internalType": "string",
          "name": "venue",
          "type": "string"
        },
        {
          "internalType": "string",
          "name": "date",
          "type": "string"
        },
        {
          "internalType": "uint256",
          "name": "ticketPrice",
          "type": "uint256"
        },
        {
          "internalType": "uint256",
          "name": "resalePriceCap",
          "type": "uint256"
        },
        {
          "internalType": "uint256",
          "name": "totalSeats",
          "type": "uint256"
        },
        {
          "internalType": "uint256",
          "name": "soldSeats",
          "type": "uint256"
        },
        {
          "internalType": "bool",
          "name": "isActive",
          "type": "bool"
        }
      ],
      "stateMutability": "view",
      "type": "function"
    },
    {
      "inputs": [],
      "name": "name",
      "outputs": [
        {
          "internalType": "string",
          "name": "",
          "type": "string"
        }
      ],
      "stateMutability": "view",
      "type": "function"
    },
    {
      "inputs": [],
      "name": "owner",
      "outputs": [
        {
          "internalType": "address",
          "name": "",
          "type": "address"
        }
      ],
      "stateMutability": "view",
      "type": "function"
    },
    {
      "inputs": [
        {
          "internalType": "uint256",
          "name": "tokenId",
          "type": "uint256"
        }
      ],
      "name": "ownerOf",
      "outputs": [
        {
          "internalType": "address",
          "name": "",
          "type": "address"
        }
      ],
      "stateMutability": "view",
      "type": "function"
    },
    {
      "inputs": [
        {
          "internalType": "address",
          "name": "",
          "type": "address"
        },
        {
          "internalType": "uint256",
          "name": "",
          "type": "uint256"
        }
      ],
      "name": "ownerTickets",
      "outputs": [
        {
          "internalType": "uint256",
          "name": "",
          "type": "uint256"
        }
      ],
      "stateMutability": "view",
      "type": "function"
    },
    {
      "inputs": [],
      "name": "renounceOwnership",
      "outputs": [],
      "stateMutability": "nonpayable",
      "type": "function"
    },
    {
      "inputs": [],
      "name": "royaltyPercent",
      "outputs": [
        {
          "internalType": "uint256",
          "name": "",
          "type": "uint256"
        }
      ],
      "stateMutability": "view",
      "type": "function"
    },
    {
      "inputs": [
        {
          "internalType": "address",
          "name": "from",
          "type": "address"
        },
        {
          "internalType": "address",
          "name": "to",
          "type": "address"
        },
        {
          "internalType": "uint256",
          "name": "tokenId",
          "type": "uint256"
        }
      ],
      "name": "safeTransferFrom",
      "outputs": [],
      "stateMutability": "nonpayable",
      "type": "function"
    },
    {
      "inputs": [
        {
          "internalType": "address",
          "name": "from",
          "type": "address"
        },
        {
          "internalType": "address",
          "name": "to",
          "type": "address"
        },
        {
          "internalType": "uint256",
          "name": "tokenId",
          "type": "uint256"
        },
        {
          "internalType": "bytes",
          "name": "data",
          "type": "bytes"
        }
      ],
      "name": "safeTransferFrom",
      "outputs": [],
      "stateMutability": "nonpayable",
      "type": "function"
    },
    {
      "inputs": [
        {
          "internalType": "uint256",
          "name": "_tokenId",
          "type": "uint256"
        }
      ],
      "name": "scanTicketAtGate",
      "outputs": [],
      "stateMutability": "nonpayable",
      "type": "function"
    },
    {
      "inputs": [
        {
          "internalType": "address",
          "name": "operator",
          "type": "address"
        },
        {
          "internalType": "bool",
          "name": "approved",
          "type": "bool"
        }
      ],
      "name": "setApprovalForAll",
      "outputs": [],
      "stateMutability": "nonpayable",
      "type": "function"
    },
    {
      "inputs": [
        {
          "internalType": "address",
          "name": "_addr",
          "type": "address"
        }
      ],
      "name": "setFanPassportContract",
      "outputs": [],
      "stateMutability": "nonpayable",
      "type": "function"
    },
    {
      "inputs": [
        {
          "internalType": "address",
          "name": "_addr",
          "type": "address"
        }
      ],
      "name": "setMarketplaceContract",
      "outputs": [],
      "stateMutability": "nonpayable",
      "type": "function"
    },
    {
      "inputs": [
        {
          "internalType": "uint256",
          "name": "_percent",
          "type": "uint256"
        }
      ],
      "name": "setRoyaltyPercent",
      "outputs": [],
      "stateMutability": "nonpayable",
      "type": "function"
    },
    {
      "inputs": [
        {
          "internalType": "uint256",
          "name": "_tokenId",
          "type": "uint256"
        },
        {
          "internalType": "bool",
          "name": "_listed",
          "type": "bool"
        }
      ],
      "name": "setTicketListed",
      "outputs": [],
      "stateMutability": "nonpayable",
      "type": "function"
    },
    {
      "inputs": [
        {
          "internalType": "bytes4",
          "name": "interfaceId",
          "type": "bytes4"
        }
      ],
      "name": "supportsInterface",
      "outputs": [
        {
          "internalType": "bool",
          "name": "",
          "type": "bool"
        }
      ],
      "stateMutability": "view",
      "type": "function"
    },
    {
      "inputs": [],
      "name": "symbol",
      "outputs": [
        {
          "internalType": "string",
          "name": "",
          "type": "string"
        }
      ],
      "stateMutability": "view",
      "type": "function"
    },
    {
      "inputs": [
        {
          "internalType": "uint256",
          "name": "",
          "type": "uint256"
        }
      ],
      "name": "tickets",
      "outputs": [
        {
          "internalType": "uint256",
          "name": "tokenId",
          "type": "uint256"
        },
        {
          "internalType": "uint256",
          "name": "matchId",
          "type": "uint256"
        },
        {
          "internalType": "string",
          "name": "matchName",
          "type": "string"
        },
        {
          "internalType": "string",
          "name": "venue",
          "type": "string"
        },
        {
          "internalType": "string",
          "name": "date",
          "type": "string"
        },
        {
          "internalType": "string",
          "name": "seat",
          "type": "string"
        },
        {
          "internalType": "string",
          "name": "stand",
          "type": "string"
        },
        {
          "internalType": "uint256",
          "name": "originalPrice",
          "type": "uint256"
        },
        {
          "internalType": "uint256",
          "name": "resalePriceCap",
          "type": "uint256"
        },
        {
          "internalType": "address",
          "name": "originalBuyer",
          "type": "address"
        },
        {
          "internalType": "bool",
          "name": "isUsed",
          "type": "bool"
        },
        {
          "internalType": "bool",
          "name": "isListed",
          "type": "bool"
        }
      ],
      "stateMutability": "view",
      "type": "function"
    },
    {
      "inputs": [
        {
          "internalType": "uint256",
          "name": "tokenId",
          "type": "uint256"
        }
      ],
      "name": "tokenURI",
      "outputs": [
        {
          "internalType": "string",
          "name": "",
          "type": "string"
        }
      ],
      "stateMutability": "view",
      "type": "function"
    },
    {
      "inputs": [],
      "name": "totalMinted",
      "outputs": [
        {
          "internalType": "uint256",
          "name": "",
          "type": "uint256"
        }
      ],
      "stateMutability": "view",
      "type": "function"
    },
    {
      "inputs": [],
      "name": "totalRoyaltyEarned",
      "outputs": [
        {
          "internalType": "uint256",
          "name": "",
          "type": "uint256"
        }
      ],
      "stateMutability": "view",
      "type": "function"
    },
    {
      "inputs": [
        {
          "internalType": "address",
          "name": "from",
          "type": "address"
        },
        {
          "internalType": "address",
          "name": "to",
          "type": "address"
        },
        {
          "internalType": "uint256",
          "name": "tokenId",
          "type": "uint256"
        }
      ],
      "name": "transferFrom",
      "outputs": [],
      "stateMutability": "nonpayable",
      "type": "function"
    },
    {
      "inputs": [
        {
          "internalType": "address",
          "name": "newOwner",
          "type": "address"
        }
      ],
      "name": "transferOwnership",
      "outputs": [],
      "stateMutability": "nonpayable",
      "type": "function"
    },
    {
      "inputs": [
        {
          "internalType": "uint256",
          "name": "_tokenId",
          "type": "uint256"
        }
      ],
      "name": "verifyTicket",
      "outputs": [
        {
          "internalType": "bool",
          "name": "isValid",
          "type": "bool"
        },
        {
          "internalType": "bool",
          "name": "isUsed",
          "type": "bool"
        },
        {
          "internalType": "address",
          "name": "currentOwner",
          "type": "address"
        },
        {
          "internalType": "string",
          "name": "matchName",
          "type": "string"
        },
        {
          "internalType": "string",
          "name": "seat",
          "type": "string"
        },
        {
          "internalType": "string",
          "name": "stand",
          "type": "string"
        },
        {
          "internalType": "string",
          "name": "date",
          "type": "string"
        }
      ],
      "stateMutability": "view",
      "type": "function"
    }
  ],
  "bytecode": "0x60806040523461037957604080519081016001600160401b0381118282101761028f576040908152601182527015da58dad95d14185cdcc8151a58dad95d607a1b602083015280519081016001600160401b0381118282101761028f5760405260058152640aea0a892b60db1b602082015281516001600160401b03811161028f575f54600181811c9116801561036f575b602082101461027157601f811161030d575b50602092601f82116001146102ae57928192935f926102a3575b50508160011b915f199060031b1c1916175f555b80516001600160401b03811161028f57600154600181811c91168015610285575b602082101461027157601f811161020e575b50602091601f82116001146101ae579181925f926101a3575b50508160011b915f199060031b1c1916176001555b33156101905760078054336001600160a01b03198216811790925560405191906001600160a01b03167f8be0079c531659141344cd1fd0a4f28419497f9722a3daafe3b4186f6b6457e05f80a3600a6010556133df908161037e8239f35b631e4fbdf760e01b5f525f60045260245ffd5b015190505f8061011d565b601f1982169260015f52805f20915f5b8581106101f6575083600195106101de575b505050811b01600155610132565b01515f1960f88460031b161c191690555f80806101d0565b919260206001819286850151815501940192016101be565b60015f527fb10e2d527612073b26eecdfd717e6a320cf44b4afac2b0732d9fcbe2b7fa0cf6601f830160051c81019160208410610267575b601f0160051c01905b81811061025c5750610104565b5f815560010161024f565b9091508190610246565b634e487b7160e01b5f52602260045260245ffd5b90607f16906100f2565b634e487b7160e01b5f52604160045260245ffd5b015190505f806100bd565b601f198216935f8052805f20915f5b8681106102f557508360019596106102dd575b505050811b015f556100d1565b01515f1960f88460031b161c191690555f80806102d0565b919260206001819286850151815501940192016102bd565b5f80527f290decd9548b62a8d60345a988386fc84ba6bc95484008f6362f93160ef3e563601f830160051c81019160208410610365575b601f0160051c01905b81811061035a57506100a3565b5f815560010161034d565b9091508190610344565b90607f1690610091565b5f80fdfe6080806040526004361015610012575f80fd5b5f3560e01c90816301ffc9a714612ad05750806306fdde0314612a2e578063081812fc146129f2578063095ea7b3146129085780630c35e618146127ad5780631102610e1461276a57806323b872dd1461275357806336529429146127365780633d092b3d1461253757806342842e0e1461250e5780634768d4ef146124065780634ba07fc1146123b957806350b447121461229c578063543cb81f146121235780635531407b1461201d578063592805081461163457806360222e2b1461155457806361f0ea66146115115780636352211e146114e157806370a0823114611490578063715018a614611435578063756765eb1461112757806379c4264b1461110a5780637dc379fa14610ecf5780638da5cb5b14610ea757806395d89b4114610ddd5780639a4fc64014610d6f5780639f67756d14610d52578063a22cb46514610c99578063a2309ff814610c7c578063a55f3f4114610468578063ade3e728146103ea578063b88d4fde14610389578063c87b56dd14610352578063d1bb5cf11461032a578063e985e9c5146102d3578063f0ab716b1461027b578063f2fde38b146101f55763fc7a25fb146101c9575f80fd5b346101f1575f3660031901126101f1576009546040516001600160a01b039091168152602090f35b5f80fd5b346101f15760203660031901126101f15761020e612b79565b61021661320e565b6001600160a01b0316801561026857600780546001600160a01b0319811683179091556001600160a01b03167f8be0079c531659141344cd1fd0a4f28419497f9722a3daafe3b4186f6b6457e05f80a3005b631e4fbdf760e01b5f525f60045260245ffd5b346101f15760403660031901126101f157610294612b79565b6001600160a01b03165f908152600d60205260409020805460243591908210156101f1576020916102c491612dc7565b90549060031b1c604051908152f35b346101f15760403660031901126101f1576102ec612b79565b6102f4612b8f565b9060018060a01b03165f52600560205260405f209060018060a01b03165f52602052602060ff60405f2054166040519015158152f35b346101f1575f3660031901126101f157600a546040516001600160a01b039091168152602090f35b346101f15760203660031901126101f1576103856103716004356132f9565b604051918291602083526020830190612b55565b0390f35b346101f15760803660031901126101f1576103a2612b79565b6103aa612b8f565b606435916001600160401b0383116101f157366023840112156101f1576103de6103e8933690602481600401359101612d64565b916044359161309a565b005b346101f15760203660031901126101f1576001600160a01b0361040b612b79565b165f52600d60205260405f206040519081602082549182815201915f5260205f20905f5b818110610452576103858561044681870382612c4f565b60405191829182612d10565b825484526020909301926001928301920161042f565b346101f1576101003660031901126101f1576004356001600160401b0381116101f157610499903690600401612d9a565b6024356001600160401b0381116101f1576104b8903690600401612d9a565b906044356001600160401b0381116101f1576104d8903690600401612d9a565b916064356001600160401b0381116101f1576104f8903690600401612d9a565b916084356001600160401b0381116101f157610518903690600401612d9a565b9360a4359360c4359060e4359461052d61320e565b868310610c2b578515610be657610545600e54612ff0565b9283600e556040519461055786612c17565b848652602086019387855260408701938452606087019182526080870190815260a087019a8b5260c08701918a835260e088019384526101008801948a86526101208901965f88526101408a019860018a525f52600b60205260405f2099518a5560018a0190518051906001600160401b0382116108da5781906105db8454612bdf565b601f8111610b96575b50602090601f8311600114610b33575f92610b28575b50508160011b915f199060031b1c19161790555b51805160028a01916001600160401b0382116108da5781906106308454612bdf565b601f8111610ad8575b50602090601f8311600114610a75575f92610a6a575b50508160011b915f199060031b1c19161790555b51805160038901916001600160401b0382116108da5781906106858454612bdf565b601f8111610a1a575b50602090601f83116001146109b7575f926109ac575b50508160011b915f199060031b1c19161790555b51805160048801916001600160401b0382116108da5781906106da8454612bdf565b601f811161095c575b50602090601f83116001146108f9575f926108ee575b50508160011b915f199060031b1c19161790555b600586019951998a516001600160401b0381116108da5761072e8254612bdf565b9b601f8d11610895575b60209c508c90601f831160011461080157936107c79793836107e19b9894600a98947f8ccb60ce0054bbe305f76dcde1ca41d233a9d89cca0359c731142c3fc535b4aa9e9c985f926107f6575b50508160011b915f199060031b1c19161790555b51600687015551600786015551600885015551600984015551151591019060ff801983541691151516179055565b600e54948594604051938493606085526060850190612b55565b918884015260408301520390a2604051908152f35b015190505f80610785565b90601f19831691845f52815f20925f5b81811061087d575084600a98947f8ccb60ce0054bbe305f76dcde1ca41d233a9d89cca0359c731142c3fc535b4aa9e9c98946107c79c98946107e19f9c9860019510610865575b505050811b019055610799565b01515f1960f88460031b161c191690555f8080610858565b92936020600181928786015181550195019301610811565b825f5260205f20601f830160051c81019d602084106108d0575b601f0160051c019c5b8d81106108c55750610738565b5f81556001016108b8565b909d508d906108af565b634e487b7160e01b5f52604160045260245ffd5b015190508d806106f9565b5f8581528281209350601f198516905b818110610944575090846001959493921061092c575b505050811b01905561070d565b01515f1960f88460031b161c191690558d808061091f565b92936020600181928786015181550195019301610909565b909150835f5260205f20601f840160051c810191602085106109a2575b90601f859493920160051c01905b81811061099457506106e3565b5f8155849350600101610987565b9091508190610979565b015190508e806106a4565b5f8581528281209350601f198516905b818110610a0257509084600195949392106109ea575b505050811b0190556106b8565b01515f1960f88460031b161c191690558e80806109dd565b929360206001819287860151815501950193016109c7565b909150835f5260205f20601f840160051c81019160208510610a60575b90601f859493920160051c01905b818110610a52575061068e565b5f8155849350600101610a45565b9091508190610a37565b015190508f8061064f565b5f8581528281209350601f198516905b818110610ac05750908460019594939210610aa8575b505050811b019055610663565b01515f1960f88460031b161c191690558f8080610a9b565b92936020600181928786015181550195019301610a85565b909150835f5260205f20601f840160051c81019160208510610b1e575b90601f859493920160051c01905b818110610b105750610639565b5f8155849350600101610b03565b9091508190610af5565b015190505f806105fa565b5f8581528281209350601f198516905b818110610b7e5750908460019594939210610b66575b505050811b01905561060e565b01515f1960f88460031b161c191690555f8080610b59565b92936020600181928786015181550195019301610b43565b909150835f5260205f20601f840160051c81019160208510610bdc575b90601f859493920160051c01905b818110610bce57506105e4565b5f8155849350600101610bc1565b9091508190610bb3565b60405162461bcd60e51b815260206004820152601960248201527f4d7573742068617665206174206c6561737420312073656174000000000000006044820152606490fd5b60405162461bcd60e51b8152602060048201526024808201527f526573616c6520636170206d757374206265203e3d206f726967696e616c20706044820152637269636560e01b6064820152608490fd5b346101f1575f3660031901126101f1576020600854604051908152f35b346101f15760403660031901126101f157610cb2612b79565b610cba612db8565b903315610d3f576001600160a01b0316908115610d2c57335f52600560205260405f20825f52602052610cfc8160405f209060ff801983541691151516179055565b60405190151581527f17307eab39ab6107e8899845ad3d59bd9653f200f220920489ca2b5937696c3160203392a3005b50630b61174360e31b5f5260045260245ffd5b63a9fbf51f60e01b5f525f60045260245ffd5b346101f1575f3660031901126101f1576020601054604051908152f35b346101f15760203660031901126101f157600435610d8b61320e565b60148111610d9857601055005b60405162461bcd60e51b815260206004820152601960248201527f526f79616c74792063616e6e6f742065786365656420323025000000000000006044820152606490fd5b346101f1575f3660031901126101f1576040515f600154610dfd81612bdf565b8084529060018116908115610e835750600114610e25575b6103858361037181850382612c4f565b60015f9081527fb10e2d527612073b26eecdfd717e6a320cf44b4afac2b0732d9fcbe2b7fa0cf6939250905b808210610e6957509091508101602001610371610e15565b919260018160209254838588010152019101909291610e51565b60ff191660208086019190915291151560051b840190910191506103719050610e15565b346101f1575f3660031901126101f1576007546040516001600160a01b039091168152602090f35b346101f15760203660031901126101f157600435604051610eef81612c33565b5f8152602081015f905260408101606090526060810160609052608081016060905260a081016060905260c081016060905260e081015f905261010081015f905261012081015f905261014081015f9052610160015f9052805f526002602052600160a01b6001900360405f2054161515610f6990612ddc565b5f52600c60205260405f20604051610f8081612c33565b8154815260018201546020820190815291610f9d60028201612c70565b60408301908152610fb060038301612c70565b6060840190815290610fc460048401612c70565b6080850190815291610fd860058501612c70565b60a0860190815293610fec60068201612c70565b60c0870190815260078201549560e0880196875260088301549261010089019384526009015495610120890194600160a01b60019003881686526101408a01968860a01c60ff16151588526101608b019860a81c60ff16151589526040519b8c9b60208d525160208d01525160408c01525160608b0161018090526101a08b0161107591612b55565b90518a8203601f190160808c015261108d9190612b55565b9051898203601f190160a08b01526110a59190612b55565b9051888203601f190160c08a01526110bd9190612b55565b9051878203601f190160e08901526110d59190612b55565b945161010087015251610120860152516001600160a01b03166101408501525115156101608401525115156101808301520390f35b346101f1575f3660031901126101f1576020600e54604051908152f35b60803660031901126101f15760043561113e612b8f565b6044356001600160a01b038116908181036101f1576064359161116c60018060a01b03600a5416331461304e565b5f8581526002602052604090205461118e906001600160a01b03161515612ddc565b845f52600c60205260ff600960405f20015460a01c166113f057845f52600c602052600860405f20015483116113b7576111c7856131da565b6001600160a01b039485169416849003611372576010548084029084820414841517156113285760649004918284039084821161132857821561135f576001600160a01b0390611218908890613235565b16806112315786637e27328960e01b5f5260045260245ffd5b8581036113455750855f52600c602052600960405f200160ff60a81b198154169055815f52600d6020526112688660405f20613015565b5f8080808660018060a01b036007541682821561133c575bf11561131457600f54838101809111611328575f8080938193600f558882888a1461131f575bf115611314577f2e80f0d7d411757d7a487139cd9acf9c64e948061a9e3d4d5bc76ab6a71848e993857fd59a36d8310ffb140214be490baf3fe8961f859a17199ec1bf9015c8b734001160206040968751908152a460075482519182526001600160a01b03166020820152a2005b6040513d5f823e3d90fd5b506108fc6112a6565b634e487b7160e01b5f52601160045260245ffd5b506108fc611280565b86866364283d7b60e01b5f5260045260245260445260645ffd5b633250574960e11b5f525f60045260245ffd5b60405162461bcd60e51b815260206004820152601a60248201527f53656c6c657220646f6573206e6f74206f776e207469636b65740000000000006044820152606490fd5b60405162461bcd60e51b81526020600482015260116024820152700507269636520657863656564732063617607c1b6044820152606490fd5b60405162461bcd60e51b815260206004820152601960248201527f43616e6e6f7420726573656c6c2075736564207469636b6574000000000000006044820152606490fd5b346101f1575f3660031901126101f15761144d61320e565b600780546001600160a01b031981169091555f906001600160a01b03167f8be0079c531659141344cd1fd0a4f28419497f9722a3daafe3b4186f6b6457e08280a3005b346101f15760203660031901126101f1576001600160a01b036114b1612b79565b1680156114ce575f526003602052602060405f2054604051908152f35b6322718ad960e21b5f525f60045260245ffd5b346101f15760203660031901126101f15760206114ff6004356131da565b6040516001600160a01b039091168152f35b346101f15760203660031901126101f15761152a612b79565b61153261320e565b600980546001600160a01b0319166001600160a01b0392909216919091179055005b346101f15760403660031901126101f157600435611570612db8565b61158560018060a01b03600a5416331461304e565b5f828152600260205260409020546115a7906001600160a01b03161515612ddc565b815f52600c60205260ff600960405f20015460a01c166115ef575f918252600c6020526040909120600901805460ff60a81b191691151560a81b60ff60a81b16919091179055005b60405162461bcd60e51b815260206004820152601760248201527f43616e6e6f74206c6973742075736564207469636b65740000000000000000006044820152606490fd5b60803660031901126101f1576004356024356001600160401b0381116101f157611662903690600401612d9a565b6044356001600160401b0381116101f157611681903690600401612d9a565b906064356001600160401b0381116101f1576116a1903690600401612d9a565b835f52600b60205260405f206116b981541515612fad565b60ff600a8201541615611fe2576009810191825460088301541115611fa957600682019485543410611f6d576116f0600854612ff0565b9586600855331561135f576001600160a01b0361170d8833613235565b16611f5a57865f52600660205260405f2083516001600160401b0381116108da57889461173a8354612bdf565b601f8111611f02575b50602090601f8311600114611e9c575f919083611e91575b50508160011b915f199060031b1c19161790555b7ff8e1a15aba9398e019f0b49df1a4fde98ee17ae345cb5f6b5e2c27f5033e8ce76020604051858152a1546007840154604051916117ac83612c33565b84835260208301938a85526117c360018801612c70565b96604085019788526117ea60056117dc60048401612c70565b926060880193845201612c70565b6080860190815260a08601918b835260c0870193845260e087019485526101008701958652610120870199338b526101408801985f8a5261016089019a5f8c525f52600c60205260405f20985189555160018901556002880190518051906001600160401b0382116108da5781906118628454612bdf565b601f8111611e41575b50602090601f8311600114611dde575f92611dd3575b50508160011b915f199060031b1c19161790555b51805160038801916001600160401b0382116108da5781906118b78454612bdf565b601f8111611d83575b50602090601f8311600114611d20575f92611d15575b50508160011b915f199060031b1c19161790555b51805160048701916001600160401b0382116108da57819061190c8454612bdf565b601f8111611cc5575b50602090601f8311600114611c62575f92611c57575b50508160011b915f199060031b1c19161790555b51805160058601916001600160401b0382116108da5781906119618454612bdf565b601f8111611c07575b50602090601f8311600114611ba4575f92611b99575b50508160011b915f199060031b1c19161790555b51805160068501916001600160401b0382116108da576119b48354612bdf565b601f8111611b54575b50602090601f8311600114611ae55791806009969492611a4a9b9a999896945f92611ada575b50508160011b915f199060031b1c19161790555b516007830155516008820155935193018054915192516001600160b01b03199092166001600160a01b03949094169390931791151560a01b60ff60a01b169190911790151560a81b60ff60a81b16179055565b335f52600d602052611a5f8360405f20613015565b611a698154612ff0565b90555f80808060018060a01b036007541681903415611ad0575b3491f11561131457602092827f788aac23bf3a0178a9d13b62024cd754d0570909f1f9f3f441dff4dfe2579f6f60405186815280611ac5339689830190612b55565b0390a4604051908152f35b6108fc9150611a83565b015190508f806119e3565b90601f19831691845f52815f20925f5b818110611b3c5750926001928592611a4a9d9c9b9a989660099a989610611b24575b505050811b0190556119f7565b01515f1960f88460031b161c191690558f8080611b17565b92936020600181928786015181550195019301611af5565b835f5260205f20601f840160051c81019160208510611b8f575b601f0160051c01905b818110611b8457506119bd565b5f8155600101611b77565b9091508190611b6e565b015190508e80611980565b5f8581528281209350601f198516905b818110611bef5750908460019594939210611bd7575b505050811b019055611994565b01515f1960f88460031b161c191690558e8080611bca565b92936020600181928786015181550195019301611bb4565b909150835f5260205f20601f840160051c81019160208510611c4d575b90601f859493920160051c01905b818110611c3f575061196a565b5f8155849350600101611c32565b9091508190611c24565b015190508f8061192b565b5f8581528281209350601f198516905b818110611cad5750908460019594939210611c95575b505050811b01905561193f565b01515f1960f88460031b161c191690558f8080611c88565b92936020600181928786015181550195019301611c72565b909150835f5260205f20601f840160051c81019160208510611d0b575b90601f859493920160051c01905b818110611cfd5750611915565b5f8155849350600101611cf0565b9091508190611ce2565b015190505f806118d6565b5f8581528281209350601f198516905b818110611d6b5750908460019594939210611d53575b505050811b0190556118ea565b01515f1960f88460031b161c191690555f8080611d46565b92936020600181928786015181550195019301611d30565b909150835f5260205f20601f840160051c81019160208510611dc9575b90601f859493920160051c01905b818110611dbb57506118c0565b5f8155849350600101611dae565b9091508190611da0565b015190505f80611881565b5f8581528281209350601f198516905b818110611e295750908460019594939210611e11575b505050811b019055611895565b01515f1960f88460031b161c191690555f8080611e04565b92936020600181928786015181550195019301611dee565b909150835f5260205f20601f840160051c81019160208510611e87575b90601f859493920160051c01905b818110611e79575061186b565b5f8155849350600101611e6c565b9091508190611e5e565b015190508b8061175b565b90601f19831691845f52815f20925f5b818110611ee75750908460019594939210611ecf575b505050811b01905561176f565b01515f1960f88460031b161c191690558b8080611ec2565b8284015185558d995060019094019360209384019301611eac565b90919280949596505f5260205f20601f840160051c81019160208510611f50575b90601f8c989796959493920160051c01905b818110611f425750611743565b5f81558b9750600101611f35565b9091508190611f23565b6339e3563760e11b5f525f60045260245ffd5b60405162461bcd60e51b8152602060048201526014602482015273125b9cdd59999a58da595b9d081c185e5b595b9d60621b6044820152606490fd5b60405162461bcd60e51b815260206004820152601160248201527013585d18da081a5cc81cdbdb19081bdd5d607a1b6044820152606490fd5b60405162461bcd60e51b81526020600482015260136024820152724d61746368206973206e6f742061637469766560681b6044820152606490fd5b346101f1575f3660031901126101f157600e545f60015b828111156120e8575061204681612ffe565b906120546040519283612c4f565b808252612063601f1991612ffe565b013660208301375f9160015b8181111561208557604051806103858582612d10565b805f52600b60205260ff600a60405f200154166120ab575b6120a690612ff0565b61206f565b9282518110156120d4576120cc818560206120a69460051b87010152612ff0565b93905061209d565b634e487b7160e01b5f52603260045260245ffd5b805f52600b60205260ff600a60405f2001541661210e575b61210990612ff0565b612034565b9061211b61210991612ff0565b919050612100565b346101f15760203660031901126101f1576004355f81815260026020526040902054612159906001600160a01b03161515612ddc565b805f52600c60205260405f206103856040519161217583612c33565b805483526001810154602084015261228e61219260028301612c70565b91604085019283526121a660038201612c70565b60608601526122806121ba60048301612c70565b91608087019283526122726121d160058301612c70565b60a0890190815261223e60096121e960068601612c70565b9460c08c01958652600781015460e08d015260088101546101008d015201549a60018060a01b038c166101208c015260ff8c60a01c16159a61016060ff8d159e8f61014085015260a81c1615159101526131da565b9651905192519451966040519a8b9a8b5260208b015260018060a01b031660408a015260e060608a015260e0890190612b55565b908782036080890152612b55565b9085820360a0870152612b55565b9083820360c0850152612b55565b346101f15760203660031901126101f1576004355f52600c60205260405f208054600182015491600281016122d090612c70565b6122dc60038301612c70565b916122e960048201612c70565b6122f560058301612c70565b61230160068401612c70565b916007840154956008850154946009015495604051998a998a5260208a0152604089016101809052610180890161233791612b55565b88810360608a015261234891612b55565b878103608089015261235991612b55565b86810360a088015261236a91612b55565b85810360c087015261237b91612b55565b9260e0850152610100840152600160a01b6001900381166101208401528060a01c60ff16151561014084015260a81c60ff1615156101608301520390f35b346101f15760203660031901126101f1576004356123d561320e565b805f52600b6020526123ec60405f20541515612fad565b5f908152600b60205260409020600a01805460ff19169055005b346101f15760203660031901126101f1576004355f52600b60205260405f2080546001820161243490612c70565b9161244160028201612c70565b61244d60038301612c70565b9161245a60048201612c70565b9261246760058301612c70565b93600683015494600784015491600885015493600986015495600a015460ff16966040519a8b9a8b5260208b0161016090526101608b016124a791612b55565b8a810360408c01526124b891612b55565b89810360608b01526124c991612b55565b88810360808a01526124da91612b55565b87810360a08901526124eb91612b55565b9460c087015260e086015261010085015261012084015215156101408301520390f35b346101f1576103e861251f36612ba5565b906040519261252f602085612c4f565b5f845261309a565b346101f15760203660031901126101f15760043560405161255781612c17565b5f8152602081016060905260408101606090526060810160609052608081016060905260a081016060905260c081015f905260e081015f905261010081015f905261012081015f9052610140015f9052805f52600b60205260405f205415156125bf90612fad565b5f52600b60205260405f206040516125d681612c17565b815481526125e660018301612c70565b60208201908152916125fa60028201612c70565b6040830190815261260d60038301612c70565b606084019081529161262160048201612c70565b608085019081529261263560058301612c70565b9360a0860194855260068301549460c0870195865260078401549160e0880192835260088501549361010089019485526009860154956101208a01968752600a015460ff16966101408a0197151588526040519a8b9a60208c525160208c01525160408b0161016090526101808b016126ad91612b55565b90518a8203601f190160608c01526126c59190612b55565b9051898203601f190160808b01526126dd9190612b55565b9051888203601f190160a08a01526126f59190612b55565b9051878203601f190160c089015261270d9190612b55565b945160e08701525161010086015251610120850152516101408401525115156101608301520390f35b346101f1575f3660031901126101f1576020600f54604051908152f35b346101f1576103e861276436612ba5565b91612e20565b346101f15760203660031901126101f157612783612b79565b61278b61320e565b600a80546001600160a01b0319166001600160a01b0392909216919091179055005b346101f15760203660031901126101f15760043560018060a01b0360075416331480156128f4575b156128b6575f818152600260205260409020546127fc906001600160a01b03161515612ddc565b805f52600c60205260ff600960405f20015460a01c1661287b575f818152600c60205260409020600901805460ff60a01b1916600160a01b179055612840816131da565b6040514281526001600160a01b0390911691907febaa6270e2d0d83cb784017d4639d7bfcafc3f10074c71f6386ef95964c9d4ae90602090a3005b60405162461bcd60e51b8152602060048201526013602482015272151a58dad95d08185b1c9958591e481d5cd959606a1b6044820152606490fd5b60405162461bcd60e51b81526020600482015260166024820152752737ba1030baba3437b934bd32b2103a379039b1b0b760511b6044820152606490fd5b506009546001600160a01b031633146127d5565b346101f15760403660031901126101f157612921612b79565b60243561292d816131da565b331515806129df575b806129b2575b61299f5781906001600160a01b0384811691167f8c5be1e5ebec7d5bd14f71427d1e84f3dd0314c0f7b2291e5b200ac8c7c3b9255f80a45f90815260046020526040902080546001600160a01b0319166001600160a01b03909216919091179055005b63a9fbf51f60e01b5f523360045260245ffd5b506001600160a01b0381165f90815260056020908152604080832033845290915290205460ff161561293c565b506001600160a01b038116331415612936565b346101f15760203660031901126101f157600435612a0f816131da565b505f526004602052602060018060a01b0360405f205416604051908152f35b346101f1575f3660031901126101f1576040515f5f54612a4d81612bdf565b8084529060018116908115610e835750600114612a74576103858361037181850382612c4f565b5f8080527f290decd9548b62a8d60345a988386fc84ba6bc95484008f6362f93160ef3e563939250905b808210612ab657509091508101602001610371610e15565b919260018160209254838588010152019101909291612a9e565b346101f15760203660031901126101f1576004359063ffffffff60e01b82168092036101f157602091632483248360e11b8114908115612b12575b5015158152f35b6380ac58cd60e01b811491508115612b44575b8115612b33575b5083612b0b565b6301ffc9a760e01b14905083612b2c565b635b5e139f60e01b81149150612b25565b805180835260209291819084018484015e5f828201840152601f01601f1916010190565b600435906001600160a01b03821682036101f157565b602435906001600160a01b03821682036101f157565b60609060031901126101f1576004356001600160a01b03811681036101f157906024356001600160a01b03811681036101f1579060443590565b90600182811c92168015612c0d575b6020831014612bf957565b634e487b7160e01b5f52602260045260245ffd5b91607f1691612bee565b61016081019081106001600160401b038211176108da57604052565b61018081019081106001600160401b038211176108da57604052565b90601f801991011681019081106001600160401b038211176108da57604052565b9060405191825f825492612c8384612bdf565b8084529360018116908115612cee5750600114612caa575b50612ca892500383612c4f565b565b90505f9291925260205f20905f915b818310612cd2575050906020612ca8928201015f612c9b565b6020919350806001915483858901015201910190918492612cb9565b905060209250612ca894915060ff191682840152151560051b8201015f612c9b565b60206040818301928281528451809452019201905f5b818110612d335750505090565b8251845260209384019390920191600101612d26565b6001600160401b0381116108da57601f01601f191660200190565b929192612d7082612d49565b91612d7e6040519384612c4f565b8294818452818301116101f1578281602093845f960137010152565b9080601f830112156101f157816020612db593359101612d64565b90565b6024359081151582036101f157565b80548210156120d4575f5260205f2001905f90565b15612de357565b60405162461bcd60e51b8152602060048201526015602482015274151a58dad95d08191bd95cc81b9bdd08195e1a5cdd605a1b6044820152606490fd5b6001600160a01b039091169190821561135f575f828152600260205260409020546001600160a01b031692829033151580612f18575b5084612ee5575b805f52600360205260405f2060018154019055815f52600260205260405f20816bffffffffffffffffffffffff60a01b825416179055847fddf252ad1be2c89b69c2b068fc378daa952ba7f163c4a11628f55a4df523b3ef5f80a46001600160a01b0316808303612ecd57505050565b6364283d7b60e01b5f5260045260245260445260645ffd5b5f82815260046020526040902080546001600160a01b0319169055845f52600360205260405f205f198154019055612e5d565b90915080612f5c575b15612f2e5782905f612e56565b8284612f4657637e27328960e01b5f5260045260245ffd5b63177e802f60e01b5f523360045260245260445ffd5b503384148015612f8b575b80612f2157505f838152600460205260409020546001600160a01b03163314612f21565b505f84815260056020908152604080832033845290915290205460ff16612f67565b15612fb457565b60405162461bcd60e51b815260206004820152601460248201527313585d18da08191bd95cc81b9bdd08195e1a5cdd60621b6044820152606490fd5b5f1981146113285760010190565b6001600160401b0381116108da5760051b60200190565b8054680100000000000000008110156108da5761303791600182018155612dc7565b819291549060031b91821b915f19901b1916179055565b1561305557565b60405162461bcd60e51b815260206004820152601e60248201527f4f6e6c79206d61726b6574706c6163652063616e2063616c6c207468697300006044820152606490fd5b92916130a7818386612e20565b813b6130b4575b50505050565b604051630a85bd0160e11b81523360048201526001600160a01b03948516602482015260448101919091526080606482015292169190602090829081906130ff906084830190612b55565b03815f865af15f9181613195575b5061316257503d1561315b573d61312381612d49565b906131316040519283612c4f565b81523d5f602083013e5b805190816131565782633250574960e11b5f5260045260245ffd5b602001fd5b606061313b565b6001600160e01b03191663757a42ff60e11b0161318357505f8080806130ae565b633250574960e11b5f5260045260245ffd5b9091506020813d6020116131d2575b816131b160209383612c4f565b810103126101f157516001600160e01b0319811681036101f157905f61310d565b3d91506131a4565b5f818152600260205260409020546001600160a01b03169081156131fc575090565b637e27328960e01b5f5260045260245ffd5b6007546001600160a01b0316330361322257565b63118cdaa760e01b5f523360045260245ffd5b5f828152600260205260409020546001600160a01b03169190826132c6575b6001600160a01b0316806132ae575b815f52600260205260405f20816bffffffffffffffffffffffff60a01b825416179055827fddf252ad1be2c89b69c2b068fc378daa952ba7f163c4a11628f55a4df523b3ef5f80a490565b805f52600360205260405f2060018154019055613263565b5f82815260046020526040902080546001600160a01b0319169055825f52600360205260405f205f198154019055613254565b613302816131da565b506020906040516133138382612c4f565b5f8152815f526006835261332960405f20612c70565b8151156133a2578084915161336757505050613344906131da565b505f6040516133538382612c4f565b526133616040519182612c4f565b5f815290565b612db5935081906040519584879551918291018487015e8401908282015f8152815193849201905e01015f815203601f198101835282612c4f565b925050509056fea264697066735822122048b71899a64e9b77ef4ed735f48ea77168748437d6a3afd9a5ca45753744f1f064736f6c634300081c0033",
  "linkReferences": {},
  "deployedLinkReferences": {}
}